{
  "_format": "hh-sol-artifact-1",
  "contractName": "DAudit",
  "sourceName": "contracts/DAudit.sol",
  "abi": [
    {
      "inputs": [
        {
          "internalType": "address",
          "name": "_auditEnrollmentsAddr",
          "type": "address"
        },
        {
          "internalType": "address",
          "name": "_auditAssignmentsAddr",
          "type": "address"
        }
      ],
      "stateMutability": "nonpayable",
      "type": "constructor"
    },
    {
      "anonymous": false,
      "inputs": [
        {
          "indexed": true,
          "internalType": "uint256",
          "name": "itemId",
          "type": "uint256"
        },
        {
          "indexed": true,
          "internalType": "address",
          "name": "nftContract",
          "type": "address"
        },
        {
          "indexed": true,
          "internalType": "uint256",
          "name": "tokenId",
          "type": "uint256"
        },
        {
          "indexed": false,
          "internalType": "address",
          "name": "producer",
          "type": "address"
        },
        {
          "indexed": false,
          "internalType": "address",
          "name": "owner",
          "type": "address"
        },
        {
          "indexed": false,
          "internalType": "uint256",
          "name": "auditFee",
          "type": "uint256"
        },
        {
          "indexed": false,
          "internalType": "uint256",
          "name": "listingFee",
          "type": "uint256"
        },
        {
          "indexed": false,
          "internalType": "uint8",
          "name": "auditorReq",
          "type": "uint8"
        },
        {
          "indexed": false,
          "internalType": "enum DAudit.AuditItemStatus",
          "name": "auditItemStatus",
          "type": "uint8"
        }
      ],
      "name": "AuditItemCreated",
      "type": "event"
    },
    {
      "anonymous": false,
      "inputs": [
        {
          "indexed": true,
          "internalType": "uint256",
          "name": "auditItemId",
          "type": "uint256"
        },
        {
          "indexed": true,
          "internalType": "uint256",
          "name": "tokenIdResult",
          "type": "uint256"
        },
        {
          "indexed": false,
          "internalType": "enum DAudit.AuditResult",
          "name": "auditResult",
          "type": "uint8"
        }
      ],
      "name": "AuditResultCreated",
      "type": "event"
    },
    {
      "anonymous": false,
      "inputs": [
        {
          "indexed": true,
          "internalType": "uint256",
          "name": "auditId",
          "type": "uint256"
        },
        {
          "indexed": true,
          "internalType": "uint256",
          "name": "auditItemId",
          "type": "uint256"
        },
        {
          "indexed": true,
          "internalType": "uint256",
          "name": "tokenIdResult",
          "type": "uint256"
        },
        {
          "indexed": false,
          "internalType": "uint256",
          "name": "auditorFee",
          "type": "uint256"
        }
      ],
      "name": "AuditResultPaid",
      "type": "event"
    },
    {
      "inputs": [
        {
          "internalType": "uint256",
          "name": "auditId",
          "type": "uint256"
        }
      ],
      "name": "assignAuditors",
      "outputs": [],
      "stateMutability": "payable",
      "type": "function"
    },
    {
      "inputs": [
        {
          "internalType": "address",
          "name": "nftContract",
          "type": "address"
        },
        {
          "internalType": "uint256",
          "name": "tokenId",
          "type": "uint256"
        },
        {
          "internalType": "uint256",
          "name": "auditFee",
          "type": "uint256"
        },
        {
          "internalType": "uint8",
          "name": "auditorsReq",
          "type": "uint8"
        }
      ],
      "name": "createAuditItem",
      "outputs": [],
      "stateMutability": "payable",
      "type": "function"
    },
    {
      "inputs": [
        {
          "internalType": "address",
          "name": "nftContract",
          "type": "address"
        },
        {
          "internalType": "uint256",
          "name": "auditItemId",
          "type": "uint256"
        },
        {
          "internalType": "uint256",
          "name": "tokenIdResult",
          "type": "uint256"
        },
        {
          "internalType": "enum DAudit.AuditResult",
          "name": "auditResult",
          "type": "uint8"
        }
      ],
      "name": "createAuditResult",
      "outputs": [],
      "stateMutability": "payable",
      "type": "function"
    },
    {
      "inputs": [
        {
          "internalType": "uint256",
          "name": "auditId",
          "type": "uint256"
        },
        {
          "internalType": "address",
          "name": "auditor",
          "type": "address"
        }
      ],
      "name": "enrollAuditor",
      "outputs": [],
      "stateMutability": "payable",
      "type": "function"
    },
    {
      "inputs": [
        {
          "internalType": "uint256",
          "name": "tokenId",
          "type": "uint256"
        }
      ],
      "name": "fetchAuditByTokenId",
      "outputs": [
        {
          "components": [
            {
              "internalType": "uint256",
              "name": "itemId",
              "type": "uint256"
            },
            {
              "internalType": "address",
              "name": "nftContract",
              "type": "address"
            },
            {
              "internalType": "uint256",
              "name": "tokenId",
              "type": "uint256"
            },
            {
              "internalType": "address payable",
              "name": "producer",
              "type": "address"
            },
            {
              "internalType": "address payable",
              "name": "owner",
              "type": "address"
            },
            {
              "internalType": "uint256",
              "name": "auditFee",
              "type": "uint256"
            },
            {
              "internalType": "uint256",
              "name": "listingFee",
              "type": "uint256"
            },
            {
              "internalType": "uint8",
              "name": "auditorReq",
              "type": "uint8"
            },
            {
              "internalType": "enum DAudit.AuditItemStatus",
              "name": "auditItemStatus",
              "type": "uint8"
            }
          ],
          "internalType": "struct DAudit.AuditItemData",
          "name": "",
          "type": "tuple"
        }
      ],
      "stateMutability": "view",
      "type": "function"
    },
    {
      "inputs": [],
      "name": "fetchAudits",
      "outputs": [
        {
          "components": [
            {
              "internalType": "uint256",
              "name": "itemId",
              "type": "uint256"
            },
            {
              "internalType": "address",
              "name": "nftContract",
              "type": "address"
            },
            {
              "internalType": "uint256",
              "name": "tokenId",
              "type": "uint256"
            },
            {
              "internalType": "address payable",
              "name": "producer",
              "type": "address"
            },
            {
              "internalType": "address payable",
              "name": "owner",
              "type": "address"
            },
            {
              "internalType": "uint256",
              "name": "auditFee",
              "type": "uint256"
            },
            {
              "internalType": "uint256",
              "name": "listingFee",
              "type": "uint256"
            },
            {
              "internalType": "uint8",
              "name": "auditorReq",
              "type": "uint8"
            },
            {
              "internalType": "enum DAudit.AuditItemStatus",
              "name": "auditItemStatus",
              "type": "uint8"
            }
          ],
          "internalType": "struct DAudit.AuditItemData[]",
          "name": "",
          "type": "tuple[]"
        }
      ],
      "stateMutability": "view",
      "type": "function"
    },
    {
      "inputs": [],
      "name": "fetchItemsProducer",
      "outputs": [
        {
          "components": [
            {
              "internalType": "uint256",
              "name": "itemId",
              "type": "uint256"
            },
            {
              "internalType": "address",
              "name": "nftContract",
              "type": "address"
            },
            {
              "internalType": "uint256",
              "name": "tokenId",
              "type": "uint256"
            },
            {
              "internalType": "address payable",
              "name": "producer",
              "type": "address"
            },
            {
              "internalType": "address payable",
              "name": "owner",
              "type": "address"
            },
            {
              "internalType": "uint256",
              "name": "auditFee",
              "type": "uint256"
            },
            {
              "internalType": "uint256",
              "name": "listingFee",
              "type": "uint256"
            },
            {
              "internalType": "uint8",
              "name": "auditorReq",
              "type": "uint8"
            },
            {
              "internalType": "enum DAudit.AuditItemStatus",
              "name": "auditItemStatus",
              "type": "uint8"
            }
          ],
          "internalType": "struct DAudit.AuditItemData[]",
          "name": "",
          "type": "tuple[]"
        }
      ],
      "stateMutability": "view",
      "type": "function"
    },
    {
      "inputs": [],
      "name": "fetchMyAudits",
      "outputs": [
        {
          "components": [
            {
              "internalType": "uint256",
              "name": "itemId",
              "type": "uint256"
            },
            {
              "internalType": "address",
              "name": "nftContract",
              "type": "address"
            },
            {
              "internalType": "uint256",
              "name": "tokenId",
              "type": "uint256"
            },
            {
              "internalType": "address payable",
              "name": "producer",
              "type": "address"
            },
            {
              "internalType": "address payable",
              "name": "owner",
              "type": "address"
            },
            {
              "internalType": "uint256",
              "name": "auditFee",
              "type": "uint256"
            },
            {
              "internalType": "uint256",
              "name": "listingFee",
              "type": "uint256"
            },
            {
              "internalType": "uint8",
              "name": "auditorReq",
              "type": "uint8"
            },
            {
              "internalType": "enum DAudit.AuditItemStatus",
              "name": "auditItemStatus",
              "type": "uint8"
            }
          ],
          "internalType": "struct DAudit.AuditItemData[]",
          "name": "",
          "type": "tuple[]"
        }
      ],
      "stateMutability": "view",
      "type": "function"
    },
    {
      "inputs": [],
      "name": "fetchPendingAudits",
      "outputs": [
        {
          "components": [
            {
              "internalType": "uint256",
              "name": "itemId",
              "type": "uint256"
            },
            {
              "internalType": "address",
              "name": "nftContract",
              "type": "address"
            },
            {
              "internalType": "uint256",
              "name": "tokenId",
              "type": "uint256"
            },
            {
              "internalType": "address payable",
              "name": "producer",
              "type": "address"
            },
            {
              "internalType": "address payable",
              "name": "owner",
              "type": "address"
            },
            {
              "internalType": "uint256",
              "name": "auditFee",
              "type": "uint256"
            },
            {
              "internalType": "uint256",
              "name": "listingFee",
              "type": "uint256"
            },
            {
              "internalType": "uint8",
              "name": "auditorReq",
              "type": "uint8"
            },
            {
              "internalType": "enum DAudit.AuditItemStatus",
              "name": "auditItemStatus",
              "type": "uint8"
            }
          ],
          "internalType": "struct DAudit.AuditItemData[]",
          "name": "",
          "type": "tuple[]"
        }
      ],
      "stateMutability": "view",
      "type": "function"
    },
    {
      "inputs": [
        {
          "internalType": "uint256",
          "name": "tokenId",
          "type": "uint256"
        }
      ],
      "name": "getAuditorsRequiredForAudit",
      "outputs": [
        {
          "internalType": "uint8",
          "name": "auditorReq",
          "type": "uint8"
        }
      ],
      "stateMutability": "view",
      "type": "function"
    },
    {
      "inputs": [],
      "name": "getListingFee",
      "outputs": [
        {
          "internalType": "uint256",
          "name": "",
          "type": "uint256"
        }
      ],
      "stateMutability": "view",
      "type": "function"
    },
    {
      "inputs": [
        {
          "internalType": "uint256",
          "name": "auditId",
          "type": "uint256"
        }
      ],
      "name": "payAuditors",
      "outputs": [],
      "stateMutability": "payable",
      "type": "function"
    },
    {
      "inputs": [
        {
          "internalType": "uint256",
          "name": "_listingFee",
          "type": "uint256"
        }
      ],
      "name": "setListingFee",
      "outputs": [],
      "stateMutability": "nonpayable",
      "type": "function"
    }
  ],
  "bytecode": "0x608060405266071afd498d00006006553480156200001c57600080fd5b5060405162002531380380620025318339810160408190526200003f916200009e565b6001600055600380546001600160a01b03199081163317909155600480546001600160a01b0394851690831617905560058054929093169116179055620000d5565b80516001600160a01b03811681146200009957600080fd5b919050565b60008060408385031215620000b1578182fd5b620000bc8362000081565b9150620000cc6020840162000081565b90509250929050565b61244c80620000e56000396000f3fe6080604052600436106100c25760003560e01c8063779853661161007f578063b8fe6abe11610059578063b8fe6abe146101b9578063d632e2ab146101d7578063e806eb34146101ea578063f2144085146101fd57600080fd5b806377985366146101645780639805a06914610191578063b5de1544146101a657600080fd5b80630693c165146100c7578063131dbd09146100dc578063396bbd89146100fc57806339722b051461010f57806348cb605c1461013a578063595b8dfc1461014f575b600080fd5b6100da6100d5366004611fe6565b610243565b005b3480156100e857600080fd5b506100da6100f7366004611fe6565b610650565b6100da61010a366004611dea565b61067f565b34801561011b57600080fd5b50610124610967565b6040516101319190612106565b60405180910390f35b34801561014657600080fd5b50610124610bb0565b34801561015b57600080fd5b50610124610d64565b34801561017057600080fd5b5061018461017f366004611fe6565b610fa4565b60405161013191906121db565b34801561019d57600080fd5b5061012461107a565b6100da6101b4366004611ffe565b611292565b3480156101c557600080fd5b50600654604051908152602001610131565b6100da6101e5366004611fe6565b61147b565b6100da6101f8366004611d9e565b611840565b34801561020957600080fd5b50610231610218366004611fe6565b6000908152600760208190526040909120015460ff1690565b60405160ff9091168152602001610131565b6002600054141561026f5760405162461bcd60e51b8152600401610266906121a4565b60405180910390fd5b60026000556003546001600160a01b0316331461029e5760405162461bcd60e51b81526004016102669061216f565b60008181526007602081815260408084208151610120810183528154815260018201546001600160a01b03908116948201949094526002820154928101929092526003810154831660608301526004808201549093166080830152600581015460a0830152600681015460c08301529283015460ff80821660e08401529193926101008086019392049091169081111561034857634e487b7160e01b600052602160045260246000fd5b600481111561036757634e487b7160e01b600052602160045260246000fd5b9052506004805460405163b9e309c160e01b81529293506001600160a01b031691600091839163b9e309c1916103a39188910190815260200190565b60006040518083038186803b1580156103bb57600080fd5b505afa1580156103cf573d6000803e3d6000fd5b505050506040513d6000823e601f3d908101601f191682016040526103f79190810190611f50565b60000151905080518360e0015160ff1611156104555760405162461bcd60e51b815260206004820152601c60248201527f4e6f7420656e6f7567682061756469746f727320656e726f6c6c6564000000006044820152606401610266565b60008360e0015160ff1667ffffffffffffffff81111561048557634e487b7160e01b600052604160045260246000fd5b6040519080825280602002602001820160405280156104ae578160200160208202803683370190505b5090506000805b60005b84518110156105af576104cc600283611abc565b61057b57610509848683815181106104f457634e487b7160e01b600052603260045260246000fd5b60200260200101518960e0015160ff16611b1b565b61057b5784818151811061052d57634e487b7160e01b600052603260045260246000fd5b602002602001015184848151811061055557634e487b7160e01b600052603260045260246000fd5b6001600160a01b0390921660209283029190910190910152826105778161237a565b9350505b8660e0015160ff1683141561058f576105af565b816105998161237a565b92505080806105a79061237a565b9150506104b8565b508560e0015160ff1682106104b55760055460405163f2a0847d60e01b81526001600160a01b0390911690819063f2a0847d906105f2908b9088906004016121ea565b600060405180830381600087803b15801561060c57600080fd5b505af1158015610620573d6000803e3d6000fd5b50505060009889525050600760208190526040882001805461ff0019166101001790555050600190945550505050565b6003546001600160a01b0316331461067a5760405162461bcd60e51b81526004016102669061216f565b600655565b600260005414156106a25760405162461bcd60e51b8152600401610266906121a4565b6002600055816106f45760405162461bcd60e51b815260206004820152601f60248201527f6175646974466565206d757374206265206174206c65617374203120776569006044820152606401610266565b6006546107019083612337565b341461075b5760405162461bcd60e51b8152602060048201526024808201527f61756469744665652b4c697374696e67466565206d7573742062652070726f766044820152631a59195960e21b6064820152608401610266565b610769600180546001019055565b600061077460015490565b60408051610120810182528281526001600160a01b038816602082015290810186905233606082015260006080820181905260a0820186905260065460c083015260ff851660e08301529192509061010082015260008281526007602081815260409283902084518155908401516001820180546001600160a01b039283166001600160a01b0319918216179091559385015160028301556060850151600383018054918316918616919091179055608085015160048084018054929093169190951617905560a0840151600582015560c0840151600682015560e0840151918101805460ff90931660ff198416811782556101008087015193959394929361ffff1990931690911791849081111561089d57634e487b7160e01b600052602160045260246000fd5b0217905550506040516323b872dd60e01b8152336004820152306024820152604481018690526001600160a01b03871691506323b872dd90606401600060405180830381600087803b1580156108f257600080fd5b505af1158015610906573d6000803e3d6000fd5b5050505083856001600160a01b0316827facc3d617db63b3d70743e53ed70a6b649016557ac5e93f470f9807e5438dd91733600088600654896000604051610953969594939291906120bf565b60405180910390a450506001600055505050565b6060600061097460015490565b905060008060005b838110156109d7573360076000610994846001612337565b81526020810191909152604001600020600301546001600160a01b031614156109c5576109c2600184612337565b92505b806109cf8161237a565b91505061097c565b5060008267ffffffffffffffff811115610a0157634e487b7160e01b600052604160045260246000fd5b604051908082528060200260200182016040528015610a3a57816020015b610a27611c06565b815260200190600190039081610a1f5790505b50905060005b84811015610ba7573360076000610a58846001612337565b81526020810191909152604001600020600301546001600160a01b03161415610b95576000610a88826001612337565b6000818152600760208181526040928390208351610120810185528154815260018201546001600160a01b03908116938201939093526002820154948101949094526003810154821660608501526004808201549092166080850152600581015460a0850152600681015460c08501529182015460ff80821660e08601529495509193849261010080860193910490911690811115610b3757634e487b7160e01b600052602160045260246000fd5b6004811115610b5657634e487b7160e01b600052602160045260246000fd5b81525050848681518110610b7a57634e487b7160e01b600052603260045260246000fd5b6020908102919091010152610b90600186612337565b945050505b80610b9f8161237a565b915050610a40565b50949350505050565b60606000610bbd60015490565b90506000808267ffffffffffffffff811115610be957634e487b7160e01b600052604160045260246000fd5b604051908082528060200260200182016040528015610c2257816020015b610c0f611c06565b815260200190600190039081610c075790505b50905060005b83811015610d5c576000610c3d826001612337565b6000818152600760208181526040928390208351610120810185528154815260018201546001600160a01b03908116938201939093526002820154948101949094526003810154821660608501526004808201549092166080850152600581015460a0850152600681015460c08501529182015460ff80821660e08601529495509193849261010080860193910490911690811115610cec57634e487b7160e01b600052602160045260246000fd5b6004811115610d0b57634e487b7160e01b600052602160045260246000fd5b81525050848681518110610d2f57634e487b7160e01b600052603260045260246000fd5b6020908102919091010152610d45600186612337565b945050508080610d549061237a565b915050610c28565b509392505050565b60606000610d7160015490565b905060008060005b83811015610dd4573360076000610d91846001612337565b81526020810191909152604001600020600301546001600160a01b03161415610dc257610dbf600184612337565b92505b80610dcc8161237a565b915050610d79565b5060008267ffffffffffffffff811115610dfe57634e487b7160e01b600052604160045260246000fd5b604051908082528060200260200182016040528015610e3757816020015b610e24611c06565b815260200190600190039081610e1c5790505b50905060005b84811015610ba7573360076000610e55846001612337565b81526020810191909152604001600020600301546001600160a01b03161415610f92576000610e85826001612337565b6000818152600760208181526040928390208351610120810185528154815260018201546001600160a01b03908116938201939093526002820154948101949094526003810154821660608501526004808201549092166080850152600581015460a0850152600681015460c08501529182015460ff80821660e08601529495509193849261010080860193910490911690811115610f3457634e487b7160e01b600052602160045260246000fd5b6004811115610f5357634e487b7160e01b600052602160045260246000fd5b81525050848681518110610f7757634e487b7160e01b600052603260045260246000fd5b6020908102919091010152610f8d600186612337565b945050505b80610f9c8161237a565b915050610e3d565b610fac611c06565b6000828152600760208181526040928390208351610120810185528154815260018201546001600160a01b03908116938201939093526002820154948101949094526003810154821660608501526004808201549092166080850152600581015460a0850152600681015460c08501529182015460ff80821660e0860152610100808601939204169081111561105257634e487b7160e01b600052602160045260246000fd5b600481111561107157634e487b7160e01b600052602160045260246000fd5b90525092915050565b6060600061108760015490565b9050600061109460025490565b6001546110a19190612363565b90506000808267ffffffffffffffff8111156110cd57634e487b7160e01b600052604160045260246000fd5b60405190808252806020026020018201604052801561110657816020015b6110f3611c06565b8152602001906001900390816110eb5790505b50905060005b84811015610ba757600060076000611125846001612337565b8152602081019190915260400160002060070154610100900460ff16600481111561116057634e487b7160e01b600052602160045260246000fd5b1415611280576000611173826001612337565b6000818152600760208181526040928390208351610120810185528154815260018201546001600160a01b03908116938201939093526002820154948101949094526003810154821660608501526004808201549092166080850152600581015460a0850152600681015460c08501529182015460ff80821660e0860152949550919384926101008086019391049091169081111561122257634e487b7160e01b600052602160045260246000fd5b600481111561124157634e487b7160e01b600052602160045260246000fd5b8152505084868151811061126557634e487b7160e01b600052603260045260246000fd5b602090810291909101015261127b600186612337565b945050505b8061128a8161237a565b91505061110c565b600260005414156112b55760405162461bcd60e51b8152600401610266906121a4565b600260008181558381526007602081815260408084208151610120810183528154815260018201546001600160a01b039081169482019490945295810154918601919091526003810154821660608601526004808201549092166080860152600581015460a0860152600681015460c08601529182015460ff80821660e0870152939493610100808601939204169081111561136157634e487b7160e01b600052602160045260246000fd5b600481111561138057634e487b7160e01b600052602160045260246000fd5b90525060045460608201519192506001600160a01b0390811691848216911614156113ed5760405162461bcd60e51b815260206004820152601e60248201527f41756469746f722063616e6e6f74206265207468652070726f647563657200006044820152606401610266565b6040516357d312af60e11b8152600481018590526001600160a01b03848116602483015282169063afa6255e90604401602060405180830381600087803b15801561143757600080fd5b505af115801561144b573d6000803e3d6000fd5b505050506040513d601f19601f8201168201806040525081019061146f9190611e2d565b50506001600055505050565b6002600054141561149e5760405162461bcd60e51b8152600401610266906121a4565b60026000556003546001600160a01b031633146114cd5760405162461bcd60e51b81526004016102669061216f565b6000818152600760205260408082206005908101549054915163f8edc10f60e01b81526004810185905290926001600160a01b039092169190829063f8edc10f9060240160006040518083038186803b15801561152957600080fd5b505afa15801561153d573d6000803e3d6000fd5b505050506040513d6000823e601f3d908101601f191682016040526115659190810190611e47565b60c08101516040820151608083015160a08401518351949550929391929091600090859082906115a557634e487b7160e01b600052603260045260246000fd5b6020026020010151905060006001905060005b865181101561160e578215158782815181106115e457634e487b7160e01b600052603260045260246000fd5b60200260200101511515146115fc576000915061160e565b806116068161237a565b9150506115b8565b50806116825760405162461bcd60e51b815260206004820152603e60248201527f416c6c2074686520417564697420726573756c7473206d75737420626520746860448201527f652073616d6520666f7220706179696e67207468652061756469746f727300006064820152608401610266565b600061169886518b611b9190919063ffffffff16565b90506116a381611b9d565b60005b8651811015611781578681815181106116cf57634e487b7160e01b600052603260045260246000fd5b60200260200101516001600160a01b03166108fc839081150290604051600060405180830381858888f1935050505015801561170f573d6000803e3d6000fd5b508186828151811061173157634e487b7160e01b600052603260045260246000fd5b602002602001018181525050600185828151811061175f57634e487b7160e01b600052603260045260246000fd5b91151560209283029190910190910152806117798161237a565b9150506116a6565b50604051631e4bafef60e31b81526001600160a01b038a169063f25d7f78906117b2908e9089908990600401612233565b600060405180830381600087803b1580156117cc57600080fd5b505af11580156117e0573d6000803e3d6000fd5b50505050821561180e5760008b815260076020819052604090912001805461ff00191661020017905561182e565b60008b815260076020819052604090912001805461ff0019166103001790555b50506001600055505050505050505050565b60055460405163fef4eddd60e01b81526004810185905233602482015284916001600160a01b031690819063fef4eddd9060440160206040518083038186803b15801561188c57600080fd5b505afa1580156118a0573d6000803e3d6000fd5b505050506040513d601f19601f820116820180604052508101906118c49190611e2d565b6119205760405162461bcd60e51b815260206004820152602760248201527f5468652061756469746f7220696e206e6f742061737369676e656420746f20746044820152666865206974656d60c81b6064820152608401610266565b600260005414156119435760405162461bcd60e51b8152600401610266906121a4565b60026000556005546001600160a01b03168063465d063c878733600189600181111561197f57634e487b7160e01b600052602160045260246000fd5b6040516001600160e01b031960e088901b168152600481019590955260248501939093526001600160a01b039091166044840152146064820152608401602060405180830381600087803b1580156119d657600080fd5b505af11580156119ea573d6000803e3d6000fd5b505050506040513d601f19601f82011682018060405250810190611a0e9190611e2d565b506040516323b872dd60e01b8152336004820152306024820152604481018690526001600160a01b038816906323b872dd90606401600060405180830381600087803b158015611a5d57600080fd5b505af1158015611a71573d6000803e3d6000fd5b5050505084867f8f6d18ae6ebc04acb4f3e4ba57d50c56f3b7ff18ce16bf99373fbf074983e3fa86604051611aa69190612155565b60405180910390a3505060016000555050505050565b604080514260208201526bffffffffffffffffffffffff193360601b16918101919091526054810182905260009083906074016040516020818303038152906040528051906020012060001c611b129190612395565b90505b92915050565b6000805b82811015611b8457836001600160a01b0316858281518110611b5157634e487b7160e01b600052603260045260246000fd5b60200260200101516001600160a01b03161415611b72576001915050611b8a565b80611b7c8161237a565b915050611b1f565b50600090505b9392505050565b6000611b12828461234f565b611be281604051602401611bb391815260200190565b60408051601f198184030181529190526020810180516001600160e01b031663f5b1bba960e01b179052611be5565b50565b80516a636f6e736f6c652e6c6f67602083016000808483855afa5050505050565b6040805161012081018252600080825260208201819052918101829052606081018290526080810182905260a0810182905260c0810182905260e081018290529061010082015290565b600082601f830112611c60578081fd5b81516020611c75611c7083612313565b6122e2565b80838252828201915082860187848660051b8901011115611c94578586fd5b855b85811015611cbb578151611ca981612401565b84529284019290840190600101611c96565b5090979650505050505050565b600082601f830112611cd8578081fd5b81516020611ce8611c7083612313565b80838252828201915082860187848660051b8901011115611d07578586fd5b855b85811015611cbb57611d1a82611d89565b84529284019290840190600101611d09565b600082601f830112611d3c578081fd5b81516020611d4c611c7083612313565b80838252828201915082860187848660051b8901011115611d6b578586fd5b855b85811015611cbb57815184529284019290840190600101611d6d565b80518015158114611d9957600080fd5b919050565b60008060008060808587031215611db3578384fd5b8435611dbe81612401565b93506020850135925060408501359150606085013560028110611ddf578182fd5b939692955090935050565b60008060008060808587031215611dff578384fd5b8435611e0a81612401565b93506020850135925060408501359150606085013560ff81168114611ddf578182fd5b600060208284031215611e3e578081fd5b611b1282611d89565b600060208284031215611e58578081fd5b815167ffffffffffffffff80821115611e6f578283fd5b9083019060e08286031215611e82578283fd5b611e8a6122b9565b8251815260208301516020820152604083015182811115611ea9578485fd5b611eb587828601611c50565b604083015250606083015182811115611ecc578485fd5b611ed887828601611d2c565b606083015250608083015182811115611eef578485fd5b611efb87828601611d2c565b60808301525060a083015182811115611f12578485fd5b611f1e87828601611cc8565b60a08301525060c083015182811115611f35578485fd5b611f4187828601611cc8565b60c08301525095945050505050565b600060208284031215611f61578081fd5b815167ffffffffffffffff80821115611f78578283fd5b9083019060608286031215611f8b578283fd5b604051606081018181108382111715611fa657611fa66123eb565b604052825182811115611fb7578485fd5b611fc387828601611c50565b825250602083015160208201526040830151604082015280935050505092915050565b600060208284031215611ff7578081fd5b5035919050565b60008060408385031215612010578182fd5b82359150602083013561202281612401565b809150509250929050565b6005811061203d5761203d6123d5565b9052565b80518252602081015160018060a01b03808216602085015260408301516040850152806060840151166060850152806080840151166080850152505060a081015160a083015260c081015160c083015260e08101516120a560e084018260ff169052565b50610100808201516120b98285018261202d565b50505050565b6001600160a01b03878116825286166020820152604081018590526060810184905260ff8316608082015260c081016120fb60a083018461202d565b979650505050505050565b6020808252825182820181905260009190848201906040850190845b8181101561214957612135838551612041565b928401926101209290920191600101612122565b50909695505050505050565b6020810160028310612169576121696123d5565b91905290565b6020808252818101527f4f776e61626c653a2063616c6c6572206973206e6f7420746865206f776e6572604082015260600190565b6020808252601f908201527f5265656e7472616e637947756172643a207265656e7472616e742063616c6c00604082015260600190565b6101208101611b158284612041565b60006040820184835260206040818501528185518084526060860191508287019350845b81811015611cbb5784516001600160a01b03168352938301939183019160010161220e565b60006060820185835260206060818501528186518084526080860191508288019350845b8181101561227357845183529383019391830191600101612257565b505084810360408601528551808252908201925081860190845b818110156122ab57825115158552938301939183019160010161228d565b509298975050505050505050565b60405160e0810167ffffffffffffffff811182821017156122dc576122dc6123eb565b60405290565b604051601f8201601f1916810167ffffffffffffffff8111828210171561230b5761230b6123eb565b604052919050565b600067ffffffffffffffff82111561232d5761232d6123eb565b5060051b60200190565b6000821982111561234a5761234a6123a9565b500190565b60008261235e5761235e6123bf565b500490565b600082821015612375576123756123a9565b500390565b600060001982141561238e5761238e6123a9565b5060010190565b6000826123a4576123a46123bf565b500690565b634e487b7160e01b600052601160045260246000fd5b634e487b7160e01b600052601260045260246000fd5b634e487b7160e01b600052602160045260246000fd5b634e487b7160e01b600052604160045260246000fd5b6001600160a01b0381168114611be257600080fdfea2646970667358221220acbce40c4d74939233701e2f4f1e8a1eb338409c71f5712ad2a3eeadf9cb181864736f6c63430008040033",
  "linkReferences": {},
  "deployedLinkReferences": {}
}