{
    "contractName": "AuditAssignments",
    "abi": [
        {
            "anonymous": false,
            "inputs": [
                {
                    "indexed": false,
                    "internalType": "uint256",
                    "name": "index",
                    "type": "uint256"
                },
                {
                    "indexed": true,
                    "internalType": "uint256",
                    "name": "auditId",
                    "type": "uint256"
                },
                {
                    "indexed": false,
                    "internalType": "address",
                    "name": "auditor",
                    "type": "address"
                }
            ],
            "name": "LogAddAssignedAuditor",
            "type": "event"
        },
        {
            "anonymous": false,
            "inputs": [
                {
                    "indexed": false,
                    "internalType": "uint256",
                    "name": "index",
                    "type": "uint256"
                },
                {
                    "indexed": true,
                    "internalType": "uint256",
                    "name": "auditId",
                    "type": "uint256"
                },
                {
                    "indexed": false,
                    "internalType": "address[]",
                    "name": "auditors",
                    "type": "address[]"
                }
            ],
            "name": "LogNewAuditAssignment",
            "type": "event"
        },
        {
            "anonymous": false,
            "inputs": [
                {
                    "indexed": false,
                    "internalType": "uint256",
                    "name": "index",
                    "type": "uint256"
                },
                {
                    "indexed": true,
                    "internalType": "uint256",
                    "name": "auditId",
                    "type": "uint256"
                },
                {
                    "indexed": false,
                    "internalType": "address[]",
                    "name": "auditors",
                    "type": "address[]"
                }
            ],
            "name": "LogUpdateAuditAssignment",
            "type": "event"
        },
        {
            "anonymous": false,
            "inputs": [
                {
                    "indexed": false,
                    "internalType": "uint256",
                    "name": "index",
                    "type": "uint256"
                },
                {
                    "indexed": true,
                    "internalType": "uint256",
                    "name": "auditId",
                    "type": "uint256"
                },
                {
                    "indexed": false,
                    "internalType": "uint256",
                    "name": "auditResultId",
                    "type": "uint256"
                }
            ],
            "name": "LogUpdateAuditResult",
            "type": "event"
        },
        {
            "anonymous": false,
            "inputs": [
                {
                    "indexed": false,
                    "internalType": "uint256",
                    "name": "index",
                    "type": "uint256"
                },
                {
                    "indexed": true,
                    "internalType": "uint256",
                    "name": "auditId",
                    "type": "uint256"
                },
                {
                    "indexed": false,
                    "internalType": "uint256[]",
                    "name": "auditFee",
                    "type": "uint256[]"
                }
            ],
            "name": "LogUpdatePayments",
            "type": "event"
        },
        {
            "inputs": [],
            "name": "fetchAuditAssignments",
            "outputs": [
                {
                    "components": [
                        {
                            "internalType": "uint256",
                            "name": "index",
                            "type": "uint256"
                        },
                        {
                            "internalType": "uint256",
                            "name": "auditId",
                            "type": "uint256"
                        },
                        {
                            "internalType": "address[]",
                            "name": "auditors",
                            "type": "address[]"
                        },
                        {
                            "internalType": "uint256[]",
                            "name": "auditResultIds",
                            "type": "uint256[]"
                        },
                        {
                            "internalType": "uint256[]",
                            "name": "auditorFees",
                            "type": "uint256[]"
                        },
                        {
                            "internalType": "bool[]",
                            "name": "auditorFeePaid",
                            "type": "bool[]"
                        },
                        {
                            "internalType": "bool[]",
                            "name": "auditorResults",
                            "type": "bool[]"
                        }
                    ],
                    "internalType": "struct AuditAssignments.AuditAssignmentData[]",
                    "name": "",
                    "type": "tuple[]"
                }
            ],
            "stateMutability": "view",
            "type": "function"
        },
        {
            "inputs": [
                {
                    "internalType": "uint256",
                    "name": "auditId",
                    "type": "uint256"
                }
            ],
            "name": "getAuditAssignment",
            "outputs": [
                {
                    "components": [
                        {
                            "internalType": "uint256",
                            "name": "index",
                            "type": "uint256"
                        },
                        {
                            "internalType": "uint256",
                            "name": "auditId",
                            "type": "uint256"
                        },
                        {
                            "internalType": "address[]",
                            "name": "auditors",
                            "type": "address[]"
                        },
                        {
                            "internalType": "uint256[]",
                            "name": "auditResultIds",
                            "type": "uint256[]"
                        },
                        {
                            "internalType": "uint256[]",
                            "name": "auditorFees",
                            "type": "uint256[]"
                        },
                        {
                            "internalType": "bool[]",
                            "name": "auditorFeePaid",
                            "type": "bool[]"
                        },
                        {
                            "internalType": "bool[]",
                            "name": "auditorResults",
                            "type": "bool[]"
                        }
                    ],
                    "internalType": "struct AuditAssignments.AuditAssignmentData",
                    "name": "",
                    "type": "tuple"
                }
            ],
            "stateMutability": "view",
            "type": "function"
        },
        {
            "inputs": [
                {
                    "internalType": "uint256",
                    "name": "index",
                    "type": "uint256"
                }
            ],
            "name": "getAuditAssignmentAtIndex",
            "outputs": [
                {
                    "internalType": "uint256",
                    "name": "auditId",
                    "type": "uint256"
                }
            ],
            "stateMutability": "view",
            "type": "function"
        },
        {
            "inputs": [],
            "name": "getAuditAssignmentCount",
            "outputs": [
                {
                    "internalType": "uint256",
                    "name": "count",
                    "type": "uint256"
                }
            ],
            "stateMutability": "view",
            "type": "function"
        },
        {
            "inputs": [
                {
                    "internalType": "uint256",
                    "name": "auditId",
                    "type": "uint256"
                },
                {
                    "internalType": "address[]",
                    "name": "_auditors",
                    "type": "address[]"
                }
            ],
            "name": "insertAuditAssignment",
            "outputs": [],
            "stateMutability": "nonpayable",
            "type": "function"
        },
        {
            "inputs": [
                {
                    "internalType": "uint256",
                    "name": "auditId",
                    "type": "uint256"
                }
            ],
            "name": "isAuditAssigned",
            "outputs": [
                {
                    "internalType": "bool",
                    "name": "",
                    "type": "bool"
                }
            ],
            "stateMutability": "view",
            "type": "function"
        },
        {
            "inputs": [
                {
                    "internalType": "uint256",
                    "name": "auditId",
                    "type": "uint256"
                },
                {
                    "internalType": "address",
                    "name": "auditor",
                    "type": "address"
                }
            ],
            "name": "isAuditorAssigned",
            "outputs": [
                {
                    "internalType": "bool",
                    "name": "",
                    "type": "bool"
                }
            ],
            "stateMutability": "view",
            "type": "function"
        },
        {
            "inputs": [
                {
                    "internalType": "uint256",
                    "name": "auditId",
                    "type": "uint256"
                },
                {
                    "internalType": "uint256",
                    "name": "auditResultId",
                    "type": "uint256"
                },
                {
                    "internalType": "address",
                    "name": "auditor",
                    "type": "address"
                },
                {
                    "internalType": "bool",
                    "name": "auditorResult",
                    "type": "bool"
                }
            ],
            "name": "updateAuditResult",
            "outputs": [
                {
                    "internalType": "bool",
                    "name": "success",
                    "type": "bool"
                }
            ],
            "stateMutability": "nonpayable",
            "type": "function"
        },
        {
            "inputs": [
                {
                    "internalType": "uint256",
                    "name": "auditId",
                    "type": "uint256"
                },
                {
                    "internalType": "uint256[]",
                    "name": "auditorFees",
                    "type": "uint256[]"
                },
                {
                    "internalType": "bool[]",
                    "name": "auditorFeePaid",
                    "type": "bool[]"
                }
            ],
            "name": "updatePayments",
            "outputs": [],
            "stateMutability": "nonpayable",
            "type": "function"
        }
    ],
    "bytecode": "608060405234801561001057600080fd5b5061155d806100206000396000f3fe608060405234801561001057600080fd5b50600436106100935760003560e01c8063e92f74e411610066578063e92f74e4146100fa578063f25d7f781461010d578063f2a0847d14610122578063f8edc10f14610135578063fef4eddd1461015557600080fd5b80632379ad8c14610098578063465d063c146100af57806397145b5a146100d2578063b23b33e3146100e5575b600080fd5b6001545b6040519081526020015b60405180910390f35b6100c26100bd366004610f6d565b610168565b60405190151581526020016100a6565b61009c6100e0366004610fb3565b61034c565b6100ed610398565b6040516100a6919061110c565b6100c2610108366004610fb3565b6106bf565b61012061011b36600461124b565b610708565b005b61012061013036600461130f565b6107c4565b610148610143366004610fb3565b610a91565b6040516100a691906113b3565b6100c26101633660046113cd565b610d04565b6000610173856106bf565b6101985760405162461bcd60e51b815260040161018f906113f9565b60405180910390fd5b6000858152602081815260408083206002810180548351818602810186019094528084529194939091908301828280156101fb57602002820191906000526020600020905b81546001600160a01b031681526001909101906020018083116101dd575b5050505050905060005b815181101561033c57856001600160a01b031682828151811061022a5761022a611430565b60200260200101516001600160a01b0316141561032a57866000808a8152602001908152602001600020600301828154811061026857610268611430565b9060005260206000200181905550846000808a8152602001908152602001600020600601828154811061029d5761029d611430565b90600052602060002090602091828204019190066101000a81548160ff021916908315150217905550877f48d95fc2b88a5596ba2b2214428158fec66691b2c4ac4aadfb5554e7470c6c716000808b81526020019081526020016000206000015489604051610316929190918252602082015260400190565b60405180910390a260019350505050610344565b806103348161145c565b915050610205565b506000925050505b949350505050565b6000610357816106bf565b6103735760405162461bcd60e51b815260040161018f906113f9565b6001828154811061038657610386611430565b90600052602060002001549050919050565b606060006103a560025490565b90506000808267ffffffffffffffff8111156103c3576103c361116e565b60405190808252806020026020018201604052801561043457816020015b6104216040518060e00160405280600081526020016000815260200160608152602001606081526020016060815260200160608152602001606081525090565b8152602001906001900390816103e15790505b50905060005b838110156106b757600061044f826001611477565b60008181526020818152604091829020825160e08101845281548152600182015481840152600282018054855181860281018601875281815296975092959194869490860193908301828280156104cf57602002820191906000526020600020905b81546001600160a01b031681526001909101906020018083116104b1575b505050505081526020016003820180548060200260200160405190810160405280929190818152602001828054801561052757602002820191906000526020600020905b815481526020019060010190808311610513575b505050505081526020016004820180548060200260200160405190810160405280929190818152602001828054801561057f57602002820191906000526020600020905b81548152602001906001019080831161056b575b50505050508152602001600582018054806020026020016040519081016040528092919081815260200182805480156105f757602002820191906000526020600020906000905b825461010083900a900460ff1615158152602060019283018181049485019490930390920291018084116105c65790505b505050505081526020016006820180548060200260200160405190810160405280929190818152602001828054801561066f57602002820191906000526020600020906000905b825461010083900a900460ff16151581526020600192830181810494850194909303909202910180841161063e5790505b50505050508152505084868151811061068a5761068a611430565b60209081029190910101526106a0600186611477565b9450505080806106af9061145c565b91505061043a565b509392505050565b6001546000906106d157506000919050565b6000828152602081905260409020546001805484929081106106f5576106f5611430565b9060005260206000200154149050919050565b610711836106bf565b61072d5760405162461bcd60e51b815260040161018f906113f9565b600083815260208181526040909120835161075092600490920191850190610dec565b50600083815260208181526040909120825161077492600590920191840190610e37565b50600083815260208190526040908190205490517f8ea16c06990444e80da7aae3f2b70b82ad9b9175eac4ee248ec1815eb1c0725b906107b7908690869061148f565b60405180910390a2505050565b6107cd826106bf565b1561082a5760405162461bcd60e51b815260206004820152602760248201527f417564697420496420616c7265616479206578697374732c206d75737420757060448201526619185d19481a5d60ca1b606482015260840161018f565b805160008167ffffffffffffffff8111156108475761084761116e565b604051908082528060200260200182016040528015610870578160200160208202803683370190505b50905060008267ffffffffffffffff81111561088e5761088e61116e565b6040519080825280602002602001820160405280156108b7578160200160208202803683370190505b50905060008367ffffffffffffffff8111156108d5576108d561116e565b6040519080825280602002602001820160405280156108fe578160200160208202803683370190505b50905060008467ffffffffffffffff81111561091c5761091c61116e565b604051908082528060200260200182016040528015610945578160200160208202803683370190505b50600088815260208181526040909120885192935061096c92600290910191890190610ed7565b50600087815260208181526040909120855161099092600690920191870190610e37565b5060008781526020818152604090912084516109b492600390920191860190610dec565b5060008781526020818152604090912083516109d892600490920191850190610dec565b5060008781526020818152604090912082516109fc92600590920191840190610e37565b506000878152602081905260409081902060018082018a9055805480820182557fb10e2d527612073b26eecdfd717e6a320cf44b4afac2b0732d9fcbe2b7fa0cf6018a905560028054808455909101905554905188917f4f9675411eeb5421968dc1b23f97e9625825055ba5c9b10d7b21731b9f01a91391610a8091908a906114dd565b60405180910390a250505050505050565b610ad16040518060e00160405280600081526020016000815260200160608152602001606081526020016060815260200160608152602001606081525090565b610ada82610d83565b60008281526020818152604091829020825160e0810184528154815260018201548184015260028201805485518186028101860187528181529295939493860193830182828015610b5457602002820191906000526020600020905b81546001600160a01b03168152600190910190602001808311610b36575b5050505050815260200160038201805480602002602001604051908101604052809291908181526020018280548015610bac57602002820191906000526020600020905b815481526020019060010190808311610b98575b5050505050815260200160048201805480602002602001604051908101604052809291908181526020018280548015610c0457602002820191906000526020600020905b815481526020019060010190808311610bf0575b5050505050815260200160058201805480602002602001604051908101604052809291908181526020018280548015610c7c57602002820191906000526020600020906000905b825461010083900a900460ff161515815260206001928301818104948501949093039092029101808411610c4b5790505b5050505050815260200160068201805480602002602001604051908101604052809291908181526020018280548015610cf457602002820191906000526020600020906000905b825461010083900a900460ff161515815260206001928301818104948501949093039092029101808411610cc35790505b5050505050815250509050919050565b600080610d1084610a91565b604081015190915060005b8151811015610d7557846001600160a01b0316828281518110610d4057610d40611430565b60200260200101516001600160a01b03161415610d635760019350505050610d7d565b80610d6d8161145c565b915050610d1b565b506000925050505b92915050565b610dc881604051602401610d9991815260200190565b60408051601f198184030181529190526020810180516001600160e01b031663f5b1bba960e01b179052610dcb565b50565b80516a636f6e736f6c652e6c6f67602083016000808483855afa5050505050565b828054828255906000526020600020908101928215610e27579160200282015b82811115610e27578251825591602001919060010190610e0c565b50610e33929150610f2c565b5090565b82805482825590600052602060002090601f01602090048101928215610e275791602002820160005b83821115610e9d57835183826101000a81548160ff0219169083151502179055509260200192600101602081600001049283019260010302610e60565b8015610eca5782816101000a81549060ff0219169055600101602081600001049283019260010302610e9d565b5050610e33929150610f2c565b828054828255906000526020600020908101928215610e27579160200282015b82811115610e2757825182546001600160a01b0319166001600160a01b03909116178255602090920191600190910190610ef7565b5b80821115610e335760008155600101610f2d565b80356001600160a01b0381168114610f5857600080fd5b919050565b80358015158114610f5857600080fd5b60008060008060808587031215610f8357600080fd5b8435935060208501359250610f9a60408601610f41565b9150610fa860608601610f5d565b905092959194509250565b600060208284031215610fc557600080fd5b5035919050565b600081518084526020808501945080840160005b83811015610ffc57815187529582019590820190600101610fe0565b509495945050505050565b600081518084526020808501945080840160005b83811015610ffc57815115158752958201959082019060010161101b565b600060e083018251845260208084015181860152604084015160e06040870152828151808552610100880191508383019450600092505b808310156110995784516001600160a01b03168252938301936001929092019190830190611070565b506060860151935086810360608801526110b38185610fcc565b9350505050608083015184820360808601526110cf8282610fcc565b91505060a083015184820360a08601526110e98282611007565b91505060c083015184820360c08601526111038282611007565b95945050505050565b6000602080830181845280855180835260408601915060408160051b870101925083870160005b8281101561116157603f1988860301845261114f858351611039565b94509285019290850190600101611133565b5092979650505050505050565b634e487b7160e01b600052604160045260246000fd5b604051601f8201601f1916810167ffffffffffffffff811182821017156111ad576111ad61116e565b604052919050565b600067ffffffffffffffff8211156111cf576111cf61116e565b5060051b60200190565b600082601f8301126111ea57600080fd5b813560206111ff6111fa836111b5565b611184565b82815260059290921b8401810191818101908684111561121e57600080fd5b8286015b848110156112405761123381610f5d565b8352918301918301611222565b509695505050505050565b60008060006060848603121561126057600080fd5b8335925060208085013567ffffffffffffffff8082111561128057600080fd5b818701915087601f83011261129457600080fd5b81356112a26111fa826111b5565b81815260059190911b8301840190848101908a8311156112c157600080fd5b938501935b828510156112df578435825293850193908501906112c6565b9650505060408701359250808311156112f757600080fd5b5050611305868287016111d9565b9150509250925092565b6000806040838503121561132257600080fd5b8235915060208084013567ffffffffffffffff81111561134157600080fd5b8401601f8101861361135257600080fd5b80356113606111fa826111b5565b81815260059190911b8201830190838101908883111561137f57600080fd5b928401925b828410156113a45761139584610f41565b82529284019290840190611384565b80955050505050509250929050565b6020815260006113c66020830184611039565b9392505050565b600080604083850312156113e057600080fd5b823591506113f060208401610f41565b90509250929050565b60208082526017908201527f417564697420496420646f6573206e6f74206578697374000000000000000000604082015260600190565b634e487b7160e01b600052603260045260246000fd5b634e487b7160e01b600052601160045260246000fd5b600060001982141561147057611470611446565b5060010190565b6000821982111561148a5761148a611446565b500190565b6000604082018483526020604081850152818551808452606086019150828701935060005b818110156114d0578451835293830193918301916001016114b4565b5090979650505050505050565b6000604082018483526020604081850152818551808452606086019150828701935060005b818110156114d05784516001600160a01b03168352938301939183019160010161150256fea26469706673582212207e79ca55be62cc47051abffd94c9858ec1f130f1db8a3d0e51b545c4b9d354d564736f6c634300080a0033",
    "sourcePath": "/Users/enriquerafaeldangelo/consensys/blockchain-developer-bootcamp-final-project/contracts/AuditorAssignments.sol",
    "compiler": {
        "name": "solc",
        "version": "0.8.10+commit.fc410830"
    },
    "functionHashes": {
        "fetchAuditAssignments()": "b23b33e3",
        "getAuditAssignment(uint256)": "f8edc10f",
        "getAuditAssignmentAtIndex(uint256)": "97145b5a",
        "getAuditAssignmentCount()": "2379ad8c",
        "insertAuditAssignment(uint256,address[])": "f2a0847d",
        "isAuditAssigned(uint256)": "e92f74e4",
        "isAuditorAssigned(uint256,address)": "fef4eddd",
        "updateAuditResult(uint256,uint256,address,bool)": "465d063c",
        "updatePayments(uint256,uint256[],bool[])": "f25d7f78"
    },
    "gasEstimates": {
        "creation": {
            "codeDepositCost": "1093800",
            "executionCost": "1134",
            "totalCost": "1094934"
        },
        "external": {
            "fetchAuditAssignments()": "infinite",
            "getAuditAssignment(uint256)": "infinite",
            "getAuditAssignmentAtIndex(uint256)": "13252",
            "getAuditAssignmentCount()": "2271",
            "insertAuditAssignment(uint256,address[])": "infinite",
            "isAuditAssigned(uint256)": "8884",
            "isAuditorAssigned(uint256,address)": "infinite",
            "updateAuditResult(uint256,uint256,address,bool)": "infinite",
            "updatePayments(uint256,uint256[],bool[])": "infinite"
        }
    }
}