{
    "contractName": "DAudit",
    "abi": [
        {
            "inputs": [
                {
                    "internalType": "address",
                    "name": "_auditEnrollmentsAddr",
                    "type": "address"
                },
                {
                    "internalType": "address",
                    "name": "_auditAssignmentsAddr",
                    "type": "address"
                }
            ],
            "stateMutability": "nonpayable",
            "type": "constructor"
        },
        {
            "anonymous": false,
            "inputs": [
                {
                    "indexed": true,
                    "internalType": "uint256",
                    "name": "itemId",
                    "type": "uint256"
                },
                {
                    "indexed": true,
                    "internalType": "address",
                    "name": "nftContract",
                    "type": "address"
                },
                {
                    "indexed": true,
                    "internalType": "uint256",
                    "name": "tokenId",
                    "type": "uint256"
                },
                {
                    "indexed": false,
                    "internalType": "address",
                    "name": "producer",
                    "type": "address"
                },
                {
                    "indexed": false,
                    "internalType": "address",
                    "name": "owner",
                    "type": "address"
                },
                {
                    "indexed": false,
                    "internalType": "uint256",
                    "name": "auditFee",
                    "type": "uint256"
                },
                {
                    "indexed": false,
                    "internalType": "uint256",
                    "name": "listingFee",
                    "type": "uint256"
                },
                {
                    "indexed": false,
                    "internalType": "uint8",
                    "name": "auditorReq",
                    "type": "uint8"
                },
                {
                    "indexed": false,
                    "internalType": "enum DAudit.AuditItemStatus",
                    "name": "auditItemStatus",
                    "type": "uint8"
                }
            ],
            "name": "AuditItemCreated",
            "type": "event"
        },
        {
            "anonymous": false,
            "inputs": [
                {
                    "indexed": true,
                    "internalType": "uint256",
                    "name": "itemId",
                    "type": "uint256"
                },
                {
                    "indexed": true,
                    "internalType": "uint256",
                    "name": "auditItemId",
                    "type": "uint256"
                },
                {
                    "indexed": true,
                    "internalType": "uint256",
                    "name": "tokenIdResult",
                    "type": "uint256"
                },
                {
                    "indexed": false,
                    "internalType": "enum DAudit.AuditResult",
                    "name": "auditResult",
                    "type": "uint8"
                }
            ],
            "name": "AuditResultCreated",
            "type": "event"
        },
        {
            "anonymous": false,
            "inputs": [
                {
                    "indexed": true,
                    "internalType": "uint256",
                    "name": "itemId",
                    "type": "uint256"
                },
                {
                    "indexed": true,
                    "internalType": "uint256",
                    "name": "auditItemId",
                    "type": "uint256"
                },
                {
                    "indexed": true,
                    "internalType": "uint256",
                    "name": "tokenIdResult",
                    "type": "uint256"
                },
                {
                    "indexed": false,
                    "internalType": "uint256",
                    "name": "auditorFee",
                    "type": "uint256"
                }
            ],
            "name": "AuditResultPaid",
            "type": "event"
        },
        {
            "inputs": [
                {
                    "internalType": "uint256",
                    "name": "tokenId",
                    "type": "uint256"
                }
            ],
            "name": "assignAuditors",
            "outputs": [],
            "stateMutability": "payable",
            "type": "function"
        },
        {
            "inputs": [
                {
                    "internalType": "address",
                    "name": "nftContract",
                    "type": "address"
                },
                {
                    "internalType": "uint256",
                    "name": "tokenId",
                    "type": "uint256"
                },
                {
                    "internalType": "uint256",
                    "name": "auditFee",
                    "type": "uint256"
                },
                {
                    "internalType": "uint8",
                    "name": "auditorsReq",
                    "type": "uint8"
                }
            ],
            "name": "createAuditItem",
            "outputs": [],
            "stateMutability": "payable",
            "type": "function"
        },
        {
            "inputs": [
                {
                    "internalType": "address",
                    "name": "nftContract",
                    "type": "address"
                },
                {
                    "internalType": "uint256",
                    "name": "auditItemId",
                    "type": "uint256"
                },
                {
                    "internalType": "uint256",
                    "name": "tokenIdResult",
                    "type": "uint256"
                },
                {
                    "internalType": "enum DAudit.AuditResult",
                    "name": "auditResult",
                    "type": "uint8"
                }
            ],
            "name": "createAuditResult",
            "outputs": [],
            "stateMutability": "payable",
            "type": "function"
        },
        {
            "inputs": [
                {
                    "internalType": "uint256",
                    "name": "auditId",
                    "type": "uint256"
                },
                {
                    "internalType": "address",
                    "name": "auditor",
                    "type": "address"
                }
            ],
            "name": "enrollAuditor",
            "outputs": [],
            "stateMutability": "payable",
            "type": "function"
        },
        {
            "inputs": [
                {
                    "internalType": "uint256",
                    "name": "tokenId",
                    "type": "uint256"
                }
            ],
            "name": "fetchAuditByTokenId",
            "outputs": [
                {
                    "components": [
                        {
                            "internalType": "uint256",
                            "name": "itemId",
                            "type": "uint256"
                        },
                        {
                            "internalType": "address",
                            "name": "nftContract",
                            "type": "address"
                        },
                        {
                            "internalType": "uint256",
                            "name": "tokenId",
                            "type": "uint256"
                        },
                        {
                            "internalType": "address payable",
                            "name": "producer",
                            "type": "address"
                        },
                        {
                            "internalType": "address payable",
                            "name": "owner",
                            "type": "address"
                        },
                        {
                            "internalType": "uint256",
                            "name": "auditFee",
                            "type": "uint256"
                        },
                        {
                            "internalType": "uint256",
                            "name": "listingFee",
                            "type": "uint256"
                        },
                        {
                            "internalType": "uint8",
                            "name": "auditorReq",
                            "type": "uint8"
                        },
                        {
                            "internalType": "enum DAudit.AuditItemStatus",
                            "name": "auditItemStatus",
                            "type": "uint8"
                        }
                    ],
                    "internalType": "struct DAudit.AuditItemData",
                    "name": "",
                    "type": "tuple"
                }
            ],
            "stateMutability": "view",
            "type": "function"
        },
        {
            "inputs": [],
            "name": "fetchAudits",
            "outputs": [
                {
                    "components": [
                        {
                            "internalType": "uint256",
                            "name": "itemId",
                            "type": "uint256"
                        },
                        {
                            "internalType": "address",
                            "name": "nftContract",
                            "type": "address"
                        },
                        {
                            "internalType": "uint256",
                            "name": "tokenId",
                            "type": "uint256"
                        },
                        {
                            "internalType": "address payable",
                            "name": "producer",
                            "type": "address"
                        },
                        {
                            "internalType": "address payable",
                            "name": "owner",
                            "type": "address"
                        },
                        {
                            "internalType": "uint256",
                            "name": "auditFee",
                            "type": "uint256"
                        },
                        {
                            "internalType": "uint256",
                            "name": "listingFee",
                            "type": "uint256"
                        },
                        {
                            "internalType": "uint8",
                            "name": "auditorReq",
                            "type": "uint8"
                        },
                        {
                            "internalType": "enum DAudit.AuditItemStatus",
                            "name": "auditItemStatus",
                            "type": "uint8"
                        }
                    ],
                    "internalType": "struct DAudit.AuditItemData[]",
                    "name": "",
                    "type": "tuple[]"
                }
            ],
            "stateMutability": "view",
            "type": "function"
        },
        {
            "inputs": [],
            "name": "fetchItemsProducer",
            "outputs": [
                {
                    "components": [
                        {
                            "internalType": "uint256",
                            "name": "itemId",
                            "type": "uint256"
                        },
                        {
                            "internalType": "address",
                            "name": "nftContract",
                            "type": "address"
                        },
                        {
                            "internalType": "uint256",
                            "name": "tokenId",
                            "type": "uint256"
                        },
                        {
                            "internalType": "address payable",
                            "name": "producer",
                            "type": "address"
                        },
                        {
                            "internalType": "address payable",
                            "name": "owner",
                            "type": "address"
                        },
                        {
                            "internalType": "uint256",
                            "name": "auditFee",
                            "type": "uint256"
                        },
                        {
                            "internalType": "uint256",
                            "name": "listingFee",
                            "type": "uint256"
                        },
                        {
                            "internalType": "uint8",
                            "name": "auditorReq",
                            "type": "uint8"
                        },
                        {
                            "internalType": "enum DAudit.AuditItemStatus",
                            "name": "auditItemStatus",
                            "type": "uint8"
                        }
                    ],
                    "internalType": "struct DAudit.AuditItemData[]",
                    "name": "",
                    "type": "tuple[]"
                }
            ],
            "stateMutability": "view",
            "type": "function"
        },
        {
            "inputs": [],
            "name": "fetchMyAudits",
            "outputs": [
                {
                    "components": [
                        {
                            "internalType": "uint256",
                            "name": "itemId",
                            "type": "uint256"
                        },
                        {
                            "internalType": "address",
                            "name": "nftContract",
                            "type": "address"
                        },
                        {
                            "internalType": "uint256",
                            "name": "tokenId",
                            "type": "uint256"
                        },
                        {
                            "internalType": "address payable",
                            "name": "producer",
                            "type": "address"
                        },
                        {
                            "internalType": "address payable",
                            "name": "owner",
                            "type": "address"
                        },
                        {
                            "internalType": "uint256",
                            "name": "auditFee",
                            "type": "uint256"
                        },
                        {
                            "internalType": "uint256",
                            "name": "listingFee",
                            "type": "uint256"
                        },
                        {
                            "internalType": "uint8",
                            "name": "auditorReq",
                            "type": "uint8"
                        },
                        {
                            "internalType": "enum DAudit.AuditItemStatus",
                            "name": "auditItemStatus",
                            "type": "uint8"
                        }
                    ],
                    "internalType": "struct DAudit.AuditItemData[]",
                    "name": "",
                    "type": "tuple[]"
                }
            ],
            "stateMutability": "view",
            "type": "function"
        },
        {
            "inputs": [],
            "name": "fetchPendingAudits",
            "outputs": [
                {
                    "components": [
                        {
                            "internalType": "uint256",
                            "name": "itemId",
                            "type": "uint256"
                        },
                        {
                            "internalType": "address",
                            "name": "nftContract",
                            "type": "address"
                        },
                        {
                            "internalType": "uint256",
                            "name": "tokenId",
                            "type": "uint256"
                        },
                        {
                            "internalType": "address payable",
                            "name": "producer",
                            "type": "address"
                        },
                        {
                            "internalType": "address payable",
                            "name": "owner",
                            "type": "address"
                        },
                        {
                            "internalType": "uint256",
                            "name": "auditFee",
                            "type": "uint256"
                        },
                        {
                            "internalType": "uint256",
                            "name": "listingFee",
                            "type": "uint256"
                        },
                        {
                            "internalType": "uint8",
                            "name": "auditorReq",
                            "type": "uint8"
                        },
                        {
                            "internalType": "enum DAudit.AuditItemStatus",
                            "name": "auditItemStatus",
                            "type": "uint8"
                        }
                    ],
                    "internalType": "struct DAudit.AuditItemData[]",
                    "name": "",
                    "type": "tuple[]"
                }
            ],
            "stateMutability": "view",
            "type": "function"
        },
        {
            "inputs": [
                {
                    "internalType": "uint256",
                    "name": "tokenId",
                    "type": "uint256"
                }
            ],
            "name": "getAuditorsRequiredForAudit",
            "outputs": [
                {
                    "internalType": "uint8",
                    "name": "auditorReq",
                    "type": "uint8"
                }
            ],
            "stateMutability": "view",
            "type": "function"
        },
        {
            "inputs": [],
            "name": "getListingFee",
            "outputs": [
                {
                    "internalType": "uint256",
                    "name": "",
                    "type": "uint256"
                }
            ],
            "stateMutability": "view",
            "type": "function"
        },
        {
            "inputs": [
                {
                    "internalType": "uint256",
                    "name": "itemId",
                    "type": "uint256"
                }
            ],
            "name": "payAuditors",
            "outputs": [],
            "stateMutability": "payable",
            "type": "function"
        }
    ],
    "bytecode": "60806040526608e1bc9bf040006008553480156200001c57600080fd5b50604051620024af380380620024af8339810160408190526200003f916200009e565b6001600055600580546001600160a01b03199081163317909155600680546001600160a01b0394851690831617905560078054929093169116179055620000d6565b80516001600160a01b03811681146200009957600080fd5b919050565b60008060408385031215620000b257600080fd5b620000bd8362000081565b9150620000cd6020840162000081565b90509250929050565b6123c980620000e66000396000f3fe6080604052600436106100a75760003560e01c80639805a069116100645780639805a06914610156578063b5de15441461016b578063b8fe6abe1461017e578063d632e2ab1461019c578063e806eb34146101af578063f2144085146101c257600080fd5b80630693c165146100ac578063396bbd89146100c157806339722b05146100d457806348cb605c146100ff578063595b8dfc146101145780637798536614610129575b600080fd5b6100bf6100ba366004611b79565b610207565b005b6100bf6100cf366004611ba7565b6105da565b3480156100e057600080fd5b506100e96108b1565b6040516100f69190611c9f565b60405180910390f35b34801561010b57600080fd5b506100e9610ac2565b34801561012057600080fd5b506100e9610c3e565b34801561013557600080fd5b50610149610144366004611b79565b610e46565b6040516100f69190611cee565b34801561016257600080fd5b506100e9610f05565b6100bf610179366004611cfd565b6110d7565b34801561018a57600080fd5b506008546040519081526020016100f6565b6100bf6101aa366004611b79565b61129a565b6100bf6101bd366004611d2d565b611624565b3480156101ce57600080fd5b506101f56101dd366004611b79565b60009081526009602052604090206007015460ff1690565b60405160ff90911681526020016100f6565b600260005414156102335760405162461bcd60e51b815260040161022a90611d70565b60405180910390fd5b60026000556005546001600160a01b031633146102925760405162461bcd60e51b815260206004820181905260248201527f4f776e61626c653a2063616c6c6572206973206e6f7420746865206f776e6572604482015260640161022a565b60008181526009602090815260408083208151610120810183528154815260018201546001600160a01b03908116948201949094526002820154928101929092526003810154831660608301526004808201549093166080830152600581015460a0830152600681015460c0830152600781015460ff80821660e085015292939192610100808601939204169081111561032e5761032e611bf7565b600481111561033f5761033f611bf7565b90525060065460405163b9e309c160e01b8152600481018590529192506001600160a01b031690600090829063b9e309c190602401600060405180830381865afa158015610391573d6000803e3d6000fd5b505050506040513d6000823e601f3d908101601f191682016040526103b99190810190611eaf565b60000151905080518360e0015160ff1611156104175760405162461bcd60e51b815260206004820152601c60248201527f4e6f7420656e6f7567682061756469746f727320656e726f6c6c656400000000604482015260640161022a565b60008360e0015160ff1667ffffffffffffffff81111561043957610439611da7565b604051908082528060200260200182016040528015610462578160200160208202803683370190505b5090506000805b60005b8451811015610539576104806002836119b4565b610505576104af8486838151811061049a5761049a611f49565b60200260200101518960e0015160ff16611a13565b610505578481815181106104c5576104c5611f49565b60200260200101518484815181106104df576104df611f49565b6001600160a01b03909216602092830291909101909101528261050181611f75565b9350505b8660e0015160ff1683141561051957610539565b8161052381611f75565b925050808061053190611f75565b91505061046c565b508560e0015160ff1682106104695760075460405163f2a0847d60e01b81526001600160a01b0390911690819063f2a0847d9061057c908b908890600401611f90565b600060405180830381600087803b15801561059657600080fd5b505af11580156105aa573d6000803e3d6000fd5b505050600098895250506009602052505060408520600701805461ff001916610100179055505060019092555050565b600260005414156105fd5760405162461bcd60e51b815260040161022a90611d70565b60026000558161064f5760405162461bcd60e51b815260206004820152601f60248201527f6175646974466565206d757374206265206174206c6561737420312077656900604482015260640161022a565b60085461065c9083611fe7565b34146106b65760405162461bcd60e51b8152602060048201526024808201527f61756469744665652b4c697374696e67466565206d7573742062652070726f766044820152631a59195960e21b606482015260840161022a565b6106c4600180546001019055565b60006106cf60015490565b60408051610120810182528281526001600160a01b038816602082015290810186905233606082015260006080820181905260a0820186905260085460c083015260ff851660e08301529192509061010082015260008281526009602090815260409182902083518155908301516001820180546001600160a01b039283166001600160a01b0319918216179091559284015160028301556060840151600383018054918316918516919091179055608084015160048084018054929093169190941617905560a0830151600582015560c0830151600682015560e083015160078201805460ff90921660ff19831681178255610100808701519495929361ffff19169091179184908111156107e7576107e7611bf7565b0217905550506040516323b872dd60e01b8152336004820152306024820152604481018690526001600160a01b03871691506323b872dd90606401600060405180830381600087803b15801561083c57600080fd5b505af1158015610850573d6000803e3d6000fd5b5050505083856001600160a01b0316827facc3d617db63b3d70743e53ed70a6b649016557ac5e93f470f9807e5438dd9173360008860085489600060405161089d96959493929190611fff565b60405180910390a450506001600055505050565b606060006108be60015490565b905060008060005b838110156109215733600960006108de846001611fe7565b81526020810191909152604001600020600301546001600160a01b0316141561090f5761090c600184611fe7565b92505b8061091981611f75565b9150506108c6565b5060008267ffffffffffffffff81111561093d5761093d611da7565b60405190808252806020026020018201604052801561097657816020015b610963611b2f565b81526020019060019003908161095b5790505b50905060005b84811015610ab9573360096000610994846001611fe7565b81526020810191909152604001600020600301546001600160a01b03161415610aa75760006109c4826001611fe7565b6000818152600960209081526040918290208251610120810184528154815260018201546001600160a01b03908116938201939093526002820154938101939093526003810154821660608401526004808201549092166080840152600581015460a0840152600681015460c0840152600781015460ff80821660e086015294955090938492610100808601930490911690811115610a6557610a65611bf7565b6004811115610a7657610a76611bf7565b81525050848681518110610a8c57610a8c611f49565b6020908102919091010152610aa2600186611fe7565b945050505b80610ab181611f75565b91505061097c565b50949350505050565b60606000610acf60015490565b90506000808267ffffffffffffffff811115610aed57610aed611da7565b604051908082528060200260200182016040528015610b2657816020015b610b13611b2f565b815260200190600190039081610b0b5790505b50905060005b83811015610c36576000610b41826001611fe7565b6000818152600960209081526040918290208251610120810184528154815260018201546001600160a01b03908116938201939093526002820154938101939093526003810154821660608401526004808201549092166080840152600581015460a0840152600681015460c0840152600781015460ff80821660e086015294955090938492610100808601930490911690811115610be257610be2611bf7565b6004811115610bf357610bf3611bf7565b81525050848681518110610c0957610c09611f49565b6020908102919091010152610c1f600186611fe7565b945050508080610c2e90611f75565b915050610b2c565b509392505050565b60606000610c4b60015490565b905060008060005b83811015610cae573360096000610c6b846001611fe7565b81526020810191909152604001600020600301546001600160a01b03161415610c9c57610c99600184611fe7565b92505b80610ca681611f75565b915050610c53565b5060008267ffffffffffffffff811115610cca57610cca611da7565b604051908082528060200260200182016040528015610d0357816020015b610cf0611b2f565b815260200190600190039081610ce85790505b50905060005b84811015610ab9573360096000610d21846001611fe7565b81526020810191909152604001600020600301546001600160a01b03161415610e34576000610d51826001611fe7565b6000818152600960209081526040918290208251610120810184528154815260018201546001600160a01b03908116938201939093526002820154938101939093526003810154821660608401526004808201549092166080840152600581015460a0840152600681015460c0840152600781015460ff80821660e086015294955090938492610100808601930490911690811115610df257610df2611bf7565b6004811115610e0357610e03611bf7565b81525050848681518110610e1957610e19611f49565b6020908102919091010152610e2f600186611fe7565b945050505b80610e3e81611f75565b915050610d09565b610e4e611b2f565b6000828152600960209081526040918290208251610120810184528154815260018201546001600160a01b03908116938201939093526002820154938101939093526003810154821660608401526004808201549092166080840152600581015460a0840152600681015460c0840152600781015460ff80821660e0860152919261010080860193920490911690811115610eeb57610eeb611bf7565b6004811115610efc57610efc611bf7565b90525092915050565b60606000610f1260015490565b90506000610f1f60025490565b600154610f2c9190612046565b90506000808267ffffffffffffffff811115610f4a57610f4a611da7565b604051908082528060200260200182016040528015610f8357816020015b610f70611b2f565b815260200190600190039081610f685790505b50905060005b84811015610ab957600060096000610fa2846001611fe7565b8152602081019190915260400160002060070154610100900460ff166004811115610fcf57610fcf611bf7565b14156110c5576000610fe2826001611fe7565b6000818152600960209081526040918290208251610120810184528154815260018201546001600160a01b03908116938201939093526002820154938101939093526003810154821660608401526004808201549092166080840152600581015460a0840152600681015460c0840152600781015460ff80821660e08601529495509093849261010080860193049091169081111561108357611083611bf7565b600481111561109457611094611bf7565b815250508486815181106110aa576110aa611f49565b60209081029190910101526110c0600186611fe7565b945050505b806110cf81611f75565b915050610f89565b600260005414156110fa5760405162461bcd60e51b815260040161022a90611d70565b600260008181558381526009602090815260408083208151610120810183528154815260018201546001600160a01b039081169482019490945294810154918501919091526003810154821660608501526004808201549092166080850152600581015460a0850152600681015460c0850152600781015460ff80821660e087015293949391926101008086019392049091169081111561119d5761119d611bf7565b60048111156111ae576111ae611bf7565b90525060065460608201519192506001600160a01b03908116918482169116141561121b5760405162461bcd60e51b815260206004820152601e60248201527f41756469746f722063616e6e6f74206265207468652070726f64756365720000604482015260640161022a565b6040516357d312af60e11b8152600481018590526001600160a01b03848116602483015282169063afa6255e906044016020604051808303816000875af115801561126a573d6000803e3d6000fd5b505050506040513d601f19601f8201168201806040525081019061128e9190612072565b50506001600055505050565b600260005414156112bd5760405162461bcd60e51b815260040161022a90611d70565b60026000556005546001600160a01b0316331461131c5760405162461bcd60e51b815260206004820181905260248201527f4f776e61626c653a2063616c6c6572206973206e6f7420746865206f776e6572604482015260640161022a565b60008181526009602052604080822060050154600754915163f8edc10f60e01b81526004810185905290926001600160a01b039092169190829063f8edc10f90602401600060405180830381865afa15801561137c573d6000803e3d6000fd5b505050506040513d6000823e601f3d908101601f191682016040526113a4919081019061214a565b60808101518151604083015160608401518351949550929391929091600090859082906113d3576113d3611f49565b6020026020010151905060006001905060005b865181101561142e5782151587828151811061140457611404611f49565b602002602001015115151461141c576000915061142e565b8061142681611f75565b9150506113e6565b50806114a25760405162461bcd60e51b815260206004820152603e60248201527f416c6c2074686520417564697420726573756c7473206d75737420626520746860448201527f652073616d6520666f7220706179696e67207468652061756469746f72730000606482015260840161022a565b6114ab89611a7b565b6114b58551611a7b565b60006114cb86518b611ac390919063ffffffff16565b90506114d681611a7b565b60005b86518110156115af578681815181106114f4576114f4611f49565b60200260200101516001600160a01b03166108fc839081150290604051600060405180830381858888f19350505050158015611534573d6000803e3d6000fd5b5061155a604051806040016040528060048152602001637061676f60e01b815250611acf565b8186828151811061156d5761156d611f49565b602002602001018181525050600185828151811061158d5761158d611f49565b91151560209283029190910190910152806115a781611f75565b9150506114d9565b50604051631e4bafef60e31b81526001600160a01b038a169063f25d7f78906115e0908e908990899060040161225e565b600060405180830381600087803b1580156115fa57600080fd5b505af115801561160e573d6000803e3d6000fd5b5050600160005550505050505050505050505050565b60075460405163fef4eddd60e01b81526004810185905233602482015284916001600160a01b031690819063fef4eddd90604401602060405180830381865afa158015611675573d6000803e3d6000fd5b505050506040513d601f19601f820116820180604052508101906116999190612072565b6116f55760405162461bcd60e51b815260206004820152602760248201527f5468652061756469746f7220696e206e6f742061737369676e656420746f20746044820152666865206974656d60c81b606482015260840161022a565b600260005414156117185760405162461bcd60e51b815260040161022a90611d70565b600260005561172b600380546001019055565b600061173660035490565b9050604051806101000160405280828152602001886001600160a01b03168152602001878152602001868152602001336001600160a01b031681526020016000815260200185600181111561178d5761178d611bf7565b815260006020918201819052838152600a82526040908190208351815591830151600180840180546001600160a01b03199081166001600160a01b039485161790915592850151600285015560608501516003850155608085015160048501805490941692169190911790915560a0830151600583015560c08301516006830180549192909160ff191690838181111561182957611829611bf7565b021790555060e082015160068201805461ff00191661010083600281111561185357611853611bf7565b0217905550506007546001600160a01b031690508063465d063c88883360018a600181111561188457611884611bf7565b6040516001600160e01b031960e088901b168152600481019590955260248501939093526001600160a01b0390911660448401521460648201526084016020604051808303816000875af11580156118e0573d6000803e3d6000fd5b505050506040513d601f19601f820116820180604052508101906119049190612072565b506040516323b872dd60e01b8152336004820152306024820152604481018790526001600160a01b038916906323b872dd90606401600060405180830381600087803b15801561195357600080fd5b505af1158015611967573d6000803e3d6000fd5b505050508587837fae68623307fa048c94058fa69b4686ae89e73ecb21a203d71be4c15c7275924b8860405161199d91906122e6565b60405180910390a450506001600055505050505050565b604080514260208201526bffffffffffffffffffffffff193360601b16918101919091526054810182905260009083906074016040516020818303038152906040528051906020012060001c611a0a9190612316565b90505b92915050565b6000805b82811015611a6e57836001600160a01b0316858281518110611a3b57611a3b611f49565b60200260200101516001600160a01b03161415611a5c576001915050611a74565b80611a6681611f75565b915050611a17565b50600090505b9392505050565b611ac081604051602401611a9191815260200190565b60408051601f198184030181529190526020810180516001600160e01b031663f5b1bba960e01b179052611b0e565b50565b6000611a0a828461232a565b611ac081604051602401611ae3919061233e565b60408051601f198184030181529190526020810180516001600160e01b031663104c13eb60e21b1790525b80516a636f6e736f6c652e6c6f67602083016000808483855afa5050505050565b6040805161012081018252600080825260208201819052918101829052606081018290526080810182905260a0810182905260c0810182905260e081018290529061010082015290565b600060208284031215611b8b57600080fd5b5035919050565b6001600160a01b0381168114611ac057600080fd5b60008060008060808587031215611bbd57600080fd5b8435611bc881611b92565b93506020850135925060408501359150606085013560ff81168114611bec57600080fd5b939692955090935050565b634e487b7160e01b600052602160045260246000fd5b60058110611c1d57611c1d611bf7565b9052565b80518252602081015160018060a01b03808216602085015260408301516040850152806060840151166060850152806080840151166080850152505060a081015160a083015260c081015160c083015260e0810151611c8560e084018260ff169052565b5061010080820151611c9982850182611c0d565b50505050565b6020808252825182820181905260009190848201906040850190845b81811015611ce257611cce838551611c21565b928401926101209290920191600101611cbb565b50909695505050505050565b6101208101611a0d8284611c21565b60008060408385031215611d1057600080fd5b823591506020830135611d2281611b92565b809150509250929050565b60008060008060808587031215611d4357600080fd5b8435611d4e81611b92565b93506020850135925060408501359150606085013560028110611bec57600080fd5b6020808252601f908201527f5265656e7472616e637947756172643a207265656e7472616e742063616c6c00604082015260600190565b634e487b7160e01b600052604160045260246000fd5b60405160e0810167ffffffffffffffff81118282101715611de057611de0611da7565b60405290565b604051601f8201601f1916810167ffffffffffffffff81118282101715611e0f57611e0f611da7565b604052919050565b600067ffffffffffffffff821115611e3157611e31611da7565b5060051b60200190565b600082601f830112611e4c57600080fd5b81516020611e61611e5c83611e17565b611de6565b82815260059290921b84018101918181019086841115611e8057600080fd5b8286015b84811015611ea4578051611e9781611b92565b8352918301918301611e84565b509695505050505050565b600060208284031215611ec157600080fd5b815167ffffffffffffffff80821115611ed957600080fd5b9083019060608286031215611eed57600080fd5b604051606081018181108382111715611f0857611f08611da7565b604052825182811115611f1a57600080fd5b611f2687828601611e3b565b825250602083015160208201526040830151604082015280935050505092915050565b634e487b7160e01b600052603260045260246000fd5b634e487b7160e01b600052601160045260246000fd5b6000600019821415611f8957611f89611f5f565b5060010190565b6000604082018483526020604081850152818551808452606086019150828701935060005b81811015611fda5784516001600160a01b031683529383019391830191600101611fb5565b5090979650505050505050565b60008219821115611ffa57611ffa611f5f565b500190565b6001600160a01b03878116825286166020820152604081018590526060810184905260ff8316608082015260c0810161203b60a0830184611c0d565b979650505050505050565b60008282101561205857612058611f5f565b500390565b8051801515811461206d57600080fd5b919050565b60006020828403121561208457600080fd5b611a0a8261205d565b600082601f83011261209e57600080fd5b815160206120ae611e5c83611e17565b82815260059290921b840181019181810190868411156120cd57600080fd5b8286015b84811015611ea457805183529183019183016120d1565b600082601f8301126120f957600080fd5b81516020612109611e5c83611e17565b82815260059290921b8401810191818101908684111561212857600080fd5b8286015b84811015611ea45761213d8161205d565b835291830191830161212c565b60006020828403121561215c57600080fd5b815167ffffffffffffffff8082111561217457600080fd5b9083019060e0828603121561218857600080fd5b612190611dbd565b82518281111561219f57600080fd5b6121ab87828601611e3b565b8252506020830151828111156121c057600080fd5b6121cc8782860161208d565b6020830152506040830151828111156121e457600080fd5b6121f08782860161208d565b60408301525060608301518281111561220857600080fd5b612214878286016120e8565b60608301525060808301518281111561222c57600080fd5b612238878286016120e8565b60808301525060a083015160a082015260c083015160c082015280935050505092915050565b6000606082018583526020606081850152818651808452608086019150828801935060005b8181101561229f57845183529383019391830191600101612283565b50508481036040860152855180825290820192508186019060005b818110156122d85782511515855293830193918301916001016122ba565b509298975050505050505050565b60208101600283106122fa576122fa611bf7565b91905290565b634e487b7160e01b600052601260045260246000fd5b60008261232557612325612300565b500690565b60008261233957612339612300565b500490565b600060208083528351808285015260005b8181101561236b5785810183015185820160400152820161234f565b8181111561237d576000604083870101525b50601f01601f191692909201604001939250505056fea2646970667358221220de64068dd2545b49c367f2da8c3804f5dc3eebba13da3f10610c5a209447fa1b64736f6c634300080a0033",
    "sourcePath": "/Users/enriquerafaeldangelo/consensys/blockchain-developer-bootcamp-final-project/contracts/DAudit.sol",
    "compiler": {
        "name": "solc",
        "version": "0.8.10+commit.fc410830"
    },
    "functionHashes": {
        "assignAuditors(uint256)": "0693c165",
        "createAuditItem(address,uint256,uint256,uint8)": "396bbd89",
        "createAuditResult(address,uint256,uint256,uint8)": "e806eb34",
        "enrollAuditor(uint256,address)": "b5de1544",
        "fetchAuditByTokenId(uint256)": "77985366",
        "fetchAudits()": "48cb605c",
        "fetchItemsProducer()": "39722b05",
        "fetchMyAudits()": "595b8dfc",
        "fetchPendingAudits()": "9805a069",
        "getAuditorsRequiredForAudit(uint256)": "f2144085",
        "getListingFee()": "b8fe6abe",
        "payAuditors(uint256)": "d632e2ab"
    },
    "gasEstimates": {
        "creation": {
            "codeDepositCost": "1832200",
            "executionCost": "infinite",
            "totalCost": "infinite"
        },
        "external": {
            "assignAuditors(uint256)": "infinite",
            "createAuditItem(address,uint256,uint256,uint8)": "infinite",
            "createAuditResult(address,uint256,uint256,uint8)": "infinite",
            "enrollAuditor(uint256,address)": "infinite",
            "fetchAuditByTokenId(uint256)": "18296",
            "fetchAudits()": "infinite",
            "fetchItemsProducer()": "infinite",
            "fetchMyAudits()": "infinite",
            "fetchPendingAudits()": "infinite",
            "getAuditorsRequiredForAudit(uint256)": "2569",
            "getListingFee()": "2324",
            "payAuditors(uint256)": "infinite"
        },
        "internal": {
            "isAddressInArray(address[] memory,address,uint256)": "infinite",
            "randMod(uint256,uint256)": "infinite"
        }
    }
}