{
    "contractName": "DAudit",
    "abi": [
        {
            "inputs": [
                {
                    "internalType": "address",
                    "name": "_auditEnrollmentsAddr",
                    "type": "address"
                },
                {
                    "internalType": "address",
                    "name": "_auditAssignmentsAddr",
                    "type": "address"
                }
            ],
            "stateMutability": "nonpayable",
            "type": "constructor"
        },
        {
            "anonymous": false,
            "inputs": [
                {
                    "indexed": true,
                    "internalType": "uint256",
                    "name": "itemId",
                    "type": "uint256"
                },
                {
                    "indexed": true,
                    "internalType": "address",
                    "name": "nftContract",
                    "type": "address"
                },
                {
                    "indexed": true,
                    "internalType": "uint256",
                    "name": "tokenId",
                    "type": "uint256"
                },
                {
                    "indexed": false,
                    "internalType": "address",
                    "name": "producer",
                    "type": "address"
                },
                {
                    "indexed": false,
                    "internalType": "address",
                    "name": "owner",
                    "type": "address"
                },
                {
                    "indexed": false,
                    "internalType": "uint256",
                    "name": "auditFee",
                    "type": "uint256"
                },
                {
                    "indexed": false,
                    "internalType": "uint256",
                    "name": "listingFee",
                    "type": "uint256"
                },
                {
                    "indexed": false,
                    "internalType": "uint8",
                    "name": "auditorReq",
                    "type": "uint8"
                },
                {
                    "indexed": false,
                    "internalType": "enum DAudit.AuditItemStatus",
                    "name": "auditItemStatus",
                    "type": "uint8"
                }
            ],
            "name": "AuditItemCreated",
            "type": "event"
        },
        {
            "anonymous": false,
            "inputs": [
                {
                    "indexed": true,
                    "internalType": "uint256",
                    "name": "auditItemId",
                    "type": "uint256"
                },
                {
                    "indexed": true,
                    "internalType": "uint256",
                    "name": "tokenIdResult",
                    "type": "uint256"
                },
                {
                    "indexed": false,
                    "internalType": "enum DAudit.AuditResult",
                    "name": "auditResult",
                    "type": "uint8"
                }
            ],
            "name": "AuditResultCreated",
            "type": "event"
        },
        {
            "anonymous": false,
            "inputs": [
                {
                    "indexed": true,
                    "internalType": "uint256",
                    "name": "auditId",
                    "type": "uint256"
                },
                {
                    "indexed": true,
                    "internalType": "uint256",
                    "name": "auditItemId",
                    "type": "uint256"
                },
                {
                    "indexed": true,
                    "internalType": "uint256",
                    "name": "tokenIdResult",
                    "type": "uint256"
                },
                {
                    "indexed": false,
                    "internalType": "uint256",
                    "name": "auditorFee",
                    "type": "uint256"
                }
            ],
            "name": "AuditResultPaid",
            "type": "event"
        },
        {
            "inputs": [
                {
                    "internalType": "uint256",
                    "name": "auditId",
                    "type": "uint256"
                }
            ],
            "name": "assignAuditors",
            "outputs": [],
            "stateMutability": "payable",
            "type": "function"
        },
        {
            "inputs": [
                {
                    "internalType": "address",
                    "name": "nftContract",
                    "type": "address"
                },
                {
                    "internalType": "uint256",
                    "name": "tokenId",
                    "type": "uint256"
                },
                {
                    "internalType": "uint256",
                    "name": "auditFee",
                    "type": "uint256"
                },
                {
                    "internalType": "uint8",
                    "name": "auditorsReq",
                    "type": "uint8"
                }
            ],
            "name": "createAuditItem",
            "outputs": [],
            "stateMutability": "payable",
            "type": "function"
        },
        {
            "inputs": [
                {
                    "internalType": "address",
                    "name": "nftContract",
                    "type": "address"
                },
                {
                    "internalType": "uint256",
                    "name": "auditItemId",
                    "type": "uint256"
                },
                {
                    "internalType": "uint256",
                    "name": "tokenIdResult",
                    "type": "uint256"
                },
                {
                    "internalType": "enum DAudit.AuditResult",
                    "name": "auditResult",
                    "type": "uint8"
                }
            ],
            "name": "createAuditResult",
            "outputs": [],
            "stateMutability": "payable",
            "type": "function"
        },
        {
            "inputs": [
                {
                    "internalType": "uint256",
                    "name": "auditId",
                    "type": "uint256"
                },
                {
                    "internalType": "address",
                    "name": "auditor",
                    "type": "address"
                }
            ],
            "name": "enrollAuditor",
            "outputs": [],
            "stateMutability": "payable",
            "type": "function"
        },
        {
            "inputs": [
                {
                    "internalType": "uint256",
                    "name": "tokenId",
                    "type": "uint256"
                }
            ],
            "name": "fetchAuditByTokenId",
            "outputs": [
                {
                    "components": [
                        {
                            "internalType": "uint256",
                            "name": "itemId",
                            "type": "uint256"
                        },
                        {
                            "internalType": "address",
                            "name": "nftContract",
                            "type": "address"
                        },
                        {
                            "internalType": "uint256",
                            "name": "tokenId",
                            "type": "uint256"
                        },
                        {
                            "internalType": "address payable",
                            "name": "producer",
                            "type": "address"
                        },
                        {
                            "internalType": "address payable",
                            "name": "owner",
                            "type": "address"
                        },
                        {
                            "internalType": "uint256",
                            "name": "auditFee",
                            "type": "uint256"
                        },
                        {
                            "internalType": "uint256",
                            "name": "listingFee",
                            "type": "uint256"
                        },
                        {
                            "internalType": "uint8",
                            "name": "auditorReq",
                            "type": "uint8"
                        },
                        {
                            "internalType": "enum DAudit.AuditItemStatus",
                            "name": "auditItemStatus",
                            "type": "uint8"
                        }
                    ],
                    "internalType": "struct DAudit.AuditItemData",
                    "name": "",
                    "type": "tuple"
                }
            ],
            "stateMutability": "view",
            "type": "function"
        },
        {
            "inputs": [],
            "name": "fetchAudits",
            "outputs": [
                {
                    "components": [
                        {
                            "internalType": "uint256",
                            "name": "itemId",
                            "type": "uint256"
                        },
                        {
                            "internalType": "address",
                            "name": "nftContract",
                            "type": "address"
                        },
                        {
                            "internalType": "uint256",
                            "name": "tokenId",
                            "type": "uint256"
                        },
                        {
                            "internalType": "address payable",
                            "name": "producer",
                            "type": "address"
                        },
                        {
                            "internalType": "address payable",
                            "name": "owner",
                            "type": "address"
                        },
                        {
                            "internalType": "uint256",
                            "name": "auditFee",
                            "type": "uint256"
                        },
                        {
                            "internalType": "uint256",
                            "name": "listingFee",
                            "type": "uint256"
                        },
                        {
                            "internalType": "uint8",
                            "name": "auditorReq",
                            "type": "uint8"
                        },
                        {
                            "internalType": "enum DAudit.AuditItemStatus",
                            "name": "auditItemStatus",
                            "type": "uint8"
                        }
                    ],
                    "internalType": "struct DAudit.AuditItemData[]",
                    "name": "",
                    "type": "tuple[]"
                }
            ],
            "stateMutability": "view",
            "type": "function"
        },
        {
            "inputs": [],
            "name": "fetchItemsProducer",
            "outputs": [
                {
                    "components": [
                        {
                            "internalType": "uint256",
                            "name": "itemId",
                            "type": "uint256"
                        },
                        {
                            "internalType": "address",
                            "name": "nftContract",
                            "type": "address"
                        },
                        {
                            "internalType": "uint256",
                            "name": "tokenId",
                            "type": "uint256"
                        },
                        {
                            "internalType": "address payable",
                            "name": "producer",
                            "type": "address"
                        },
                        {
                            "internalType": "address payable",
                            "name": "owner",
                            "type": "address"
                        },
                        {
                            "internalType": "uint256",
                            "name": "auditFee",
                            "type": "uint256"
                        },
                        {
                            "internalType": "uint256",
                            "name": "listingFee",
                            "type": "uint256"
                        },
                        {
                            "internalType": "uint8",
                            "name": "auditorReq",
                            "type": "uint8"
                        },
                        {
                            "internalType": "enum DAudit.AuditItemStatus",
                            "name": "auditItemStatus",
                            "type": "uint8"
                        }
                    ],
                    "internalType": "struct DAudit.AuditItemData[]",
                    "name": "",
                    "type": "tuple[]"
                }
            ],
            "stateMutability": "view",
            "type": "function"
        },
        {
            "inputs": [],
            "name": "fetchMyAudits",
            "outputs": [
                {
                    "components": [
                        {
                            "internalType": "uint256",
                            "name": "itemId",
                            "type": "uint256"
                        },
                        {
                            "internalType": "address",
                            "name": "nftContract",
                            "type": "address"
                        },
                        {
                            "internalType": "uint256",
                            "name": "tokenId",
                            "type": "uint256"
                        },
                        {
                            "internalType": "address payable",
                            "name": "producer",
                            "type": "address"
                        },
                        {
                            "internalType": "address payable",
                            "name": "owner",
                            "type": "address"
                        },
                        {
                            "internalType": "uint256",
                            "name": "auditFee",
                            "type": "uint256"
                        },
                        {
                            "internalType": "uint256",
                            "name": "listingFee",
                            "type": "uint256"
                        },
                        {
                            "internalType": "uint8",
                            "name": "auditorReq",
                            "type": "uint8"
                        },
                        {
                            "internalType": "enum DAudit.AuditItemStatus",
                            "name": "auditItemStatus",
                            "type": "uint8"
                        }
                    ],
                    "internalType": "struct DAudit.AuditItemData[]",
                    "name": "",
                    "type": "tuple[]"
                }
            ],
            "stateMutability": "view",
            "type": "function"
        },
        {
            "inputs": [],
            "name": "fetchPendingAudits",
            "outputs": [
                {
                    "components": [
                        {
                            "internalType": "uint256",
                            "name": "itemId",
                            "type": "uint256"
                        },
                        {
                            "internalType": "address",
                            "name": "nftContract",
                            "type": "address"
                        },
                        {
                            "internalType": "uint256",
                            "name": "tokenId",
                            "type": "uint256"
                        },
                        {
                            "internalType": "address payable",
                            "name": "producer",
                            "type": "address"
                        },
                        {
                            "internalType": "address payable",
                            "name": "owner",
                            "type": "address"
                        },
                        {
                            "internalType": "uint256",
                            "name": "auditFee",
                            "type": "uint256"
                        },
                        {
                            "internalType": "uint256",
                            "name": "listingFee",
                            "type": "uint256"
                        },
                        {
                            "internalType": "uint8",
                            "name": "auditorReq",
                            "type": "uint8"
                        },
                        {
                            "internalType": "enum DAudit.AuditItemStatus",
                            "name": "auditItemStatus",
                            "type": "uint8"
                        }
                    ],
                    "internalType": "struct DAudit.AuditItemData[]",
                    "name": "",
                    "type": "tuple[]"
                }
            ],
            "stateMutability": "view",
            "type": "function"
        },
        {
            "inputs": [
                {
                    "internalType": "uint256",
                    "name": "tokenId",
                    "type": "uint256"
                }
            ],
            "name": "getAuditorsRequiredForAudit",
            "outputs": [
                {
                    "internalType": "uint8",
                    "name": "auditorReq",
                    "type": "uint8"
                }
            ],
            "stateMutability": "view",
            "type": "function"
        },
        {
            "inputs": [],
            "name": "getListingFee",
            "outputs": [
                {
                    "internalType": "uint256",
                    "name": "",
                    "type": "uint256"
                }
            ],
            "stateMutability": "view",
            "type": "function"
        },
        {
            "inputs": [
                {
                    "internalType": "uint256",
                    "name": "auditId",
                    "type": "uint256"
                }
            ],
            "name": "payAuditors",
            "outputs": [],
            "stateMutability": "payable",
            "type": "function"
        },
        {
            "inputs": [
                {
                    "internalType": "uint256",
                    "name": "_listingFee",
                    "type": "uint256"
                }
            ],
            "name": "setListingFee",
            "outputs": [],
            "stateMutability": "nonpayable",
            "type": "function"
        }
    ],
    "bytecode": "608060405266071afd498d00006006553480156200001c57600080fd5b506040516200232e3803806200232e8339810160408190526200003f916200009e565b6001600055600380546001600160a01b03199081163317909155600480546001600160a01b0394851690831617905560058054929093169116179055620000d6565b80516001600160a01b03811681146200009957600080fd5b919050565b60008060408385031215620000b257600080fd5b620000bd8362000081565b9150620000cd6020840162000081565b90509250929050565b61224880620000e66000396000f3fe6080604052600436106100c25760003560e01c8063779853661161007f578063b8fe6abe11610059578063b8fe6abe146101b9578063d632e2ab146101d7578063e806eb34146101ea578063f2144085146101fd57600080fd5b806377985366146101645780639805a06914610191578063b5de1544146101a657600080fd5b80630693c165146100c7578063131dbd09146100dc578063396bbd89146100fc57806339722b051461010f57806348cb605c1461013a578063595b8dfc1461014f575b600080fd5b6100da6100d5366004611a1b565b610243565b005b3480156100e857600080fd5b506100da6100f7366004611a1b565b6105ed565b6100da61010a366004611a49565b61061c565b34801561011b57600080fd5b506101246108f6565b6040516101319190611b41565b60405180910390f35b34801561014657600080fd5b50610124610b07565b34801561015b57600080fd5b50610124610c83565b34801561017057600080fd5b5061018461017f366004611a1b565b610e8b565b6040516101319190611b90565b34801561019d57600080fd5b50610124610f45565b6100da6101b4366004611b9f565b611117565b3480156101c557600080fd5b50600654604051908152602001610131565b6100da6101e5366004611a1b565b6112d5565b6100da6101f8366004611bcf565b611645565b34801561020957600080fd5b50610231610218366004611a1b565b6000908152600760208190526040909120015460ff1690565b60405160ff9091168152602001610131565b6002600054141561026f5760405162461bcd60e51b815260040161026690611c12565b60405180910390fd5b60026000556003546001600160a01b0316331461029e5760405162461bcd60e51b815260040161026690611c49565b60008181526007602081815260408084208151610120810183528154815260018201546001600160a01b03908116948201949094526002820154928101929092526003810154831660608301526004808201549093166080830152600581015460a0830152600681015460c08301529283015460ff80821660e08401529193926101008086019392049091169081111561033a5761033a611a99565b600481111561034b5761034b611a99565b9052506004805460405163b9e309c160e01b81529293506001600160a01b031691600091839163b9e309c1916103879188910190815260200190565b600060405180830381865afa1580156103a4573d6000803e3d6000fd5b505050506040513d6000823e601f3d908101601f191682016040526103cc9190810190611d86565b60000151905080518360e0015160ff16111561042a5760405162461bcd60e51b815260206004820152601c60248201527f4e6f7420656e6f7567682061756469746f727320656e726f6c6c6564000000006044820152606401610266565b60008360e0015160ff1667ffffffffffffffff81111561044c5761044c611c7e565b604051908082528060200260200182016040528015610475578160200160208202803683370190505b5090506000805b60005b845181101561054c57610493600283611895565b610518576104c2848683815181106104ad576104ad611e20565b60200260200101518960e0015160ff166118f4565b610518578481815181106104d8576104d8611e20565b60200260200101518484815181106104f2576104f2611e20565b6001600160a01b03909216602092830291909101909101528261051481611e4c565b9350505b8660e0015160ff1683141561052c5761054c565b8161053681611e4c565b925050808061054490611e4c565b91505061047f565b508560e0015160ff16821061047c5760055460405163f2a0847d60e01b81526001600160a01b0390911690819063f2a0847d9061058f908b908890600401611e67565b600060405180830381600087803b1580156105a957600080fd5b505af11580156105bd573d6000803e3d6000fd5b50505060009889525050600760208190526040882001805461ff0019166101001790555050600190945550505050565b6003546001600160a01b031633146106175760405162461bcd60e51b815260040161026690611c49565b600655565b6002600054141561063f5760405162461bcd60e51b815260040161026690611c12565b6002600055816106915760405162461bcd60e51b815260206004820152601f60248201527f6175646974466565206d757374206265206174206c65617374203120776569006044820152606401610266565b60065461069e9083611ebe565b34146106f85760405162461bcd60e51b8152602060048201526024808201527f61756469744665652b4c697374696e67466565206d7573742062652070726f766044820152631a59195960e21b6064820152608401610266565b610706600180546001019055565b600061071160015490565b60408051610120810182528281526001600160a01b038816602082015290810186905233606082015260006080820181905260a0820186905260065460c083015260ff851660e08301529192509061010082015260008281526007602081815260409283902084518155908401516001820180546001600160a01b039283166001600160a01b0319918216179091559385015160028301556060850151600383018054918316918616919091179055608085015160048084018054929093169190951617905560a0840151600582015560c0840151600682015560e0840151918101805460ff90931660ff198416811782556101008087015193959394929361ffff1990931690911791849081111561082c5761082c611a99565b0217905550506040516323b872dd60e01b8152336004820152306024820152604481018690526001600160a01b03871691506323b872dd90606401600060405180830381600087803b15801561088157600080fd5b505af1158015610895573d6000803e3d6000fd5b5050505083856001600160a01b0316827facc3d617db63b3d70743e53ed70a6b649016557ac5e93f470f9807e5438dd917336000886006548960006040516108e296959493929190611ed6565b60405180910390a450506001600055505050565b6060600061090360015490565b905060008060005b83811015610966573360076000610923846001611ebe565b81526020810191909152604001600020600301546001600160a01b0316141561095457610951600184611ebe565b92505b8061095e81611e4c565b91505061090b565b5060008267ffffffffffffffff81111561098257610982611c7e565b6040519080825280602002602001820160405280156109bb57816020015b6109a86119d1565b8152602001906001900390816109a05790505b50905060005b84811015610afe5733600760006109d9846001611ebe565b81526020810191909152604001600020600301546001600160a01b03161415610aec576000610a09826001611ebe565b6000818152600760208181526040928390208351610120810185528154815260018201546001600160a01b03908116938201939093526002820154948101949094526003810154821660608501526004808201549092166080850152600581015460a0850152600681015460c08501529182015460ff80821660e08601529495509193849261010080860193910490911690811115610aaa57610aaa611a99565b6004811115610abb57610abb611a99565b81525050848681518110610ad157610ad1611e20565b6020908102919091010152610ae7600186611ebe565b945050505b80610af681611e4c565b9150506109c1565b50949350505050565b60606000610b1460015490565b90506000808267ffffffffffffffff811115610b3257610b32611c7e565b604051908082528060200260200182016040528015610b6b57816020015b610b586119d1565b815260200190600190039081610b505790505b50905060005b83811015610c7b576000610b86826001611ebe565b6000818152600760208181526040928390208351610120810185528154815260018201546001600160a01b03908116938201939093526002820154948101949094526003810154821660608501526004808201549092166080850152600581015460a0850152600681015460c08501529182015460ff80821660e08601529495509193849261010080860193910490911690811115610c2757610c27611a99565b6004811115610c3857610c38611a99565b81525050848681518110610c4e57610c4e611e20565b6020908102919091010152610c64600186611ebe565b945050508080610c7390611e4c565b915050610b71565b509392505050565b60606000610c9060015490565b905060008060005b83811015610cf3573360076000610cb0846001611ebe565b81526020810191909152604001600020600301546001600160a01b03161415610ce157610cde600184611ebe565b92505b80610ceb81611e4c565b915050610c98565b5060008267ffffffffffffffff811115610d0f57610d0f611c7e565b604051908082528060200260200182016040528015610d4857816020015b610d356119d1565b815260200190600190039081610d2d5790505b50905060005b84811015610afe573360076000610d66846001611ebe565b81526020810191909152604001600020600301546001600160a01b03161415610e79576000610d96826001611ebe565b6000818152600760208181526040928390208351610120810185528154815260018201546001600160a01b03908116938201939093526002820154948101949094526003810154821660608501526004808201549092166080850152600581015460a0850152600681015460c08501529182015460ff80821660e08601529495509193849261010080860193910490911690811115610e3757610e37611a99565b6004811115610e4857610e48611a99565b81525050848681518110610e5e57610e5e611e20565b6020908102919091010152610e74600186611ebe565b945050505b80610e8381611e4c565b915050610d4e565b610e936119d1565b6000828152600760208181526040928390208351610120810185528154815260018201546001600160a01b03908116938201939093526002820154948101949094526003810154821660608501526004808201549092166080850152600581015460a0850152600681015460c08501529182015460ff80821660e08601526101008086019392041690811115610f2b57610f2b611a99565b6004811115610f3c57610f3c611a99565b90525092915050565b60606000610f5260015490565b90506000610f5f60025490565b600154610f6c9190611f1d565b90506000808267ffffffffffffffff811115610f8a57610f8a611c7e565b604051908082528060200260200182016040528015610fc357816020015b610fb06119d1565b815260200190600190039081610fa85790505b50905060005b84811015610afe57600060076000610fe2846001611ebe565b8152602081019190915260400160002060070154610100900460ff16600481111561100f5761100f611a99565b1415611105576000611022826001611ebe565b6000818152600760208181526040928390208351610120810185528154815260018201546001600160a01b03908116938201939093526002820154948101949094526003810154821660608501526004808201549092166080850152600581015460a0850152600681015460c08501529182015460ff80821660e086015294955091938492610100808601939104909116908111156110c3576110c3611a99565b60048111156110d4576110d4611a99565b815250508486815181106110ea576110ea611e20565b6020908102919091010152611100600186611ebe565b945050505b8061110f81611e4c565b915050610fc9565b6002600054141561113a5760405162461bcd60e51b815260040161026690611c12565b600260008181558381526007602081815260408084208151610120810183528154815260018201546001600160a01b039081169482019490945295810154918601919091526003810154821660608601526004808201549092166080860152600581015460a0860152600681015460c08601529182015460ff80821660e087015293949361010080860193920416908111156111d8576111d8611a99565b60048111156111e9576111e9611a99565b90525060045460608201519192506001600160a01b0390811691848216911614156112565760405162461bcd60e51b815260206004820152601e60248201527f41756469746f722063616e6e6f74206265207468652070726f647563657200006044820152606401610266565b6040516357d312af60e11b8152600481018590526001600160a01b03848116602483015282169063afa6255e906044016020604051808303816000875af11580156112a5573d6000803e3d6000fd5b505050506040513d601f19601f820116820180604052508101906112c99190611f49565b50506001600055505050565b600260005414156112f85760405162461bcd60e51b815260040161026690611c12565b60026000556003546001600160a01b031633146113275760405162461bcd60e51b815260040161026690611c49565b6000818152600760205260408082206005908101549054915163f8edc10f60e01b81526004810185905290926001600160a01b039092169190829063f8edc10f90602401600060405180830381865afa158015611388573d6000803e3d6000fd5b505050506040513d6000823e601f3d908101601f191682016040526113b09190810190612021565b60c08101516040820151608083015160a08401518351949550929391929091600090859082906113e2576113e2611e20565b6020026020010151905060006001905060005b865181101561143d5782151587828151811061141357611413611e20565b602002602001015115151461142b576000915061143d565b8061143581611e4c565b9150506113f5565b50806114b15760405162461bcd60e51b815260206004820152603e60248201527f416c6c2074686520417564697420726573756c7473206d75737420626520746860448201527f652073616d6520666f7220706179696e67207468652061756469746f727300006064820152608401610266565b60006114c786518b61195c90919063ffffffff16565b90506114d281611968565b60005b8651811015611586578681815181106114f0576114f0611e20565b60200260200101516001600160a01b03166108fc839081150290604051600060405180830381858888f19350505050158015611530573d6000803e3d6000fd5b508186828151811061154457611544611e20565b602002602001018181525050600185828151811061156457611564611e20565b911515602092830291909101909101528061157e81611e4c565b9150506114d5565b50604051631e4bafef60e31b81526001600160a01b038a169063f25d7f78906115b7908e9089908990600401612132565b600060405180830381600087803b1580156115d157600080fd5b505af11580156115e5573d6000803e3d6000fd5b5050505082156116135760008b815260076020819052604090912001805461ff001916610200179055611633565b60008b815260076020819052604090912001805461ff0019166103001790555b50506001600055505050505050505050565b60055460405163fef4eddd60e01b81526004810185905233602482015284916001600160a01b031690819063fef4eddd90604401602060405180830381865afa158015611696573d6000803e3d6000fd5b505050506040513d601f19601f820116820180604052508101906116ba9190611f49565b6117165760405162461bcd60e51b815260206004820152602760248201527f5468652061756469746f7220696e206e6f742061737369676e656420746f20746044820152666865206974656d60c81b6064820152608401610266565b600260005414156117395760405162461bcd60e51b815260040161026690611c12565b60026000556005546001600160a01b03168063465d063c878733600189600181111561176757611767611a99565b6040516001600160e01b031960e088901b168152600481019590955260248501939093526001600160a01b0390911660448401521460648201526084016020604051808303816000875af11580156117c3573d6000803e3d6000fd5b505050506040513d601f19601f820116820180604052508101906117e79190611f49565b506040516323b872dd60e01b8152336004820152306024820152604481018690526001600160a01b038816906323b872dd90606401600060405180830381600087803b15801561183657600080fd5b505af115801561184a573d6000803e3d6000fd5b5050505084867f8f6d18ae6ebc04acb4f3e4ba57d50c56f3b7ff18ce16bf99373fbf074983e3fa8660405161187f91906121ba565b60405180910390a3505060016000555050505050565b604080514260208201526bffffffffffffffffffffffff193360601b16918101919091526054810182905260009083906074016040516020818303038152906040528051906020012060001c6118eb91906121ea565b90505b92915050565b6000805b8281101561194f57836001600160a01b031685828151811061191c5761191c611e20565b60200260200101516001600160a01b0316141561193d576001915050611955565b8061194781611e4c565b9150506118f8565b50600090505b9392505050565b60006118eb82846121fe565b6119ad8160405160240161197e91815260200190565b60408051601f198184030181529190526020810180516001600160e01b031663f5b1bba960e01b1790526119b0565b50565b80516a636f6e736f6c652e6c6f67602083016000808483855afa5050505050565b6040805161012081018252600080825260208201819052918101829052606081018290526080810182905260a0810182905260c0810182905260e081018290529061010082015290565b600060208284031215611a2d57600080fd5b5035919050565b6001600160a01b03811681146119ad57600080fd5b60008060008060808587031215611a5f57600080fd5b8435611a6a81611a34565b93506020850135925060408501359150606085013560ff81168114611a8e57600080fd5b939692955090935050565b634e487b7160e01b600052602160045260246000fd5b60058110611abf57611abf611a99565b9052565b80518252602081015160018060a01b03808216602085015260408301516040850152806060840151166060850152806080840151166080850152505060a081015160a083015260c081015160c083015260e0810151611b2760e084018260ff169052565b5061010080820151611b3b82850182611aaf565b50505050565b6020808252825182820181905260009190848201906040850190845b81811015611b8457611b70838551611ac3565b928401926101209290920191600101611b5d565b50909695505050505050565b61012081016118ee8284611ac3565b60008060408385031215611bb257600080fd5b823591506020830135611bc481611a34565b809150509250929050565b60008060008060808587031215611be557600080fd5b8435611bf081611a34565b93506020850135925060408501359150606085013560028110611a8e57600080fd5b6020808252601f908201527f5265656e7472616e637947756172643a207265656e7472616e742063616c6c00604082015260600190565b6020808252818101527f4f776e61626c653a2063616c6c6572206973206e6f7420746865206f776e6572604082015260600190565b634e487b7160e01b600052604160045260246000fd5b60405160e0810167ffffffffffffffff81118282101715611cb757611cb7611c7e565b60405290565b604051601f8201601f1916810167ffffffffffffffff81118282101715611ce657611ce6611c7e565b604052919050565b600067ffffffffffffffff821115611d0857611d08611c7e565b5060051b60200190565b600082601f830112611d2357600080fd5b81516020611d38611d3383611cee565b611cbd565b82815260059290921b84018101918181019086841115611d5757600080fd5b8286015b84811015611d7b578051611d6e81611a34565b8352918301918301611d5b565b509695505050505050565b600060208284031215611d9857600080fd5b815167ffffffffffffffff80821115611db057600080fd5b9083019060608286031215611dc457600080fd5b604051606081018181108382111715611ddf57611ddf611c7e565b604052825182811115611df157600080fd5b611dfd87828601611d12565b825250602083015160208201526040830151604082015280935050505092915050565b634e487b7160e01b600052603260045260246000fd5b634e487b7160e01b600052601160045260246000fd5b6000600019821415611e6057611e60611e36565b5060010190565b6000604082018483526020604081850152818551808452606086019150828701935060005b81811015611eb15784516001600160a01b031683529383019391830191600101611e8c565b5090979650505050505050565b60008219821115611ed157611ed1611e36565b500190565b6001600160a01b03878116825286166020820152604081018590526060810184905260ff8316608082015260c08101611f1260a0830184611aaf565b979650505050505050565b600082821015611f2f57611f2f611e36565b500390565b80518015158114611f4457600080fd5b919050565b600060208284031215611f5b57600080fd5b6118eb82611f34565b600082601f830112611f7557600080fd5b81516020611f85611d3383611cee565b82815260059290921b84018101918181019086841115611fa457600080fd5b8286015b84811015611d7b5780518352918301918301611fa8565b600082601f830112611fd057600080fd5b81516020611fe0611d3383611cee565b82815260059290921b84018101918181019086841115611fff57600080fd5b8286015b84811015611d7b5761201481611f34565b8352918301918301612003565b60006020828403121561203357600080fd5b815167ffffffffffffffff8082111561204b57600080fd5b9083019060e0828603121561205f57600080fd5b612067611c94565b825181526020830151602082015260408301518281111561208757600080fd5b61209387828601611d12565b6040830152506060830151828111156120ab57600080fd5b6120b787828601611f64565b6060830152506080830151828111156120cf57600080fd5b6120db87828601611f64565b60808301525060a0830151828111156120f357600080fd5b6120ff87828601611fbf565b60a08301525060c08301518281111561211757600080fd5b61212387828601611fbf565b60c08301525095945050505050565b6000606082018583526020606081850152818651808452608086019150828801935060005b8181101561217357845183529383019391830191600101612157565b50508481036040860152855180825290820192508186019060005b818110156121ac57825115158552938301939183019160010161218e565b509298975050505050505050565b60208101600283106121ce576121ce611a99565b91905290565b634e487b7160e01b600052601260045260246000fd5b6000826121f9576121f96121d4565b500690565b60008261220d5761220d6121d4565b50049056fea264697066735822122019f2d4a0876314d42adec192977bd923ea9195af9b062f6c46d3eedab571b94564736f6c634300080a0033",
    "sourcePath": "/Users/enriquerafaeldangelo/consensys/blockchain-developer-bootcamp-final-project/contracts/DAudit.sol",
    "compiler": {
        "name": "solc",
        "version": "0.8.10+commit.fc410830"
    },
    "functionHashes": {
        "assignAuditors(uint256)": "0693c165",
        "createAuditItem(address,uint256,uint256,uint8)": "396bbd89",
        "createAuditResult(address,uint256,uint256,uint8)": "e806eb34",
        "enrollAuditor(uint256,address)": "b5de1544",
        "fetchAuditByTokenId(uint256)": "77985366",
        "fetchAudits()": "48cb605c",
        "fetchItemsProducer()": "39722b05",
        "fetchMyAudits()": "595b8dfc",
        "fetchPendingAudits()": "9805a069",
        "getAuditorsRequiredForAudit(uint256)": "f2144085",
        "getListingFee()": "b8fe6abe",
        "payAuditors(uint256)": "d632e2ab",
        "setListingFee(uint256)": "131dbd09"
    },
    "gasEstimates": {
        "creation": {
            "codeDepositCost": "1755200",
            "executionCost": "infinite",
            "totalCost": "infinite"
        },
        "external": {
            "assignAuditors(uint256)": "infinite",
            "createAuditItem(address,uint256,uint256,uint8)": "infinite",
            "createAuditResult(address,uint256,uint256,uint8)": "infinite",
            "enrollAuditor(uint256,address)": "infinite",
            "fetchAuditByTokenId(uint256)": "18196",
            "fetchAudits()": "infinite",
            "fetchItemsProducer()": "infinite",
            "fetchMyAudits()": "infinite",
            "fetchPendingAudits()": "infinite",
            "getAuditorsRequiredForAudit(uint256)": "2553",
            "getListingFee()": "2302",
            "payAuditors(uint256)": "infinite",
            "setListingFee(uint256)": "24487"
        },
        "internal": {
            "isAddressInArray(address[] memory,address,uint256)": "infinite",
            "randMod(uint256,uint256)": "infinite"
        }
    }
}