{
  "_format": "hh-sol-artifact-1",
  "contractName": "AuditAssignments",
  "sourceName": "contracts/AuditorAssignments.sol",
  "abi": [
    {
      "anonymous": false,
      "inputs": [
        {
          "indexed": false,
          "internalType": "uint256",
          "name": "index",
          "type": "uint256"
        },
        {
          "indexed": true,
          "internalType": "uint256",
          "name": "auditId",
          "type": "uint256"
        },
        {
          "indexed": false,
          "internalType": "address",
          "name": "auditor",
          "type": "address"
        }
      ],
      "name": "LogAddAssignedAuditor",
      "type": "event"
    },
    {
      "anonymous": false,
      "inputs": [
        {
          "indexed": false,
          "internalType": "uint256",
          "name": "index",
          "type": "uint256"
        },
        {
          "indexed": true,
          "internalType": "uint256",
          "name": "auditId",
          "type": "uint256"
        },
        {
          "indexed": false,
          "internalType": "address[]",
          "name": "auditors",
          "type": "address[]"
        }
      ],
      "name": "LogNewAuditAssignment",
      "type": "event"
    },
    {
      "anonymous": false,
      "inputs": [
        {
          "indexed": false,
          "internalType": "uint256",
          "name": "index",
          "type": "uint256"
        },
        {
          "indexed": true,
          "internalType": "uint256",
          "name": "auditId",
          "type": "uint256"
        },
        {
          "indexed": false,
          "internalType": "address[]",
          "name": "auditors",
          "type": "address[]"
        }
      ],
      "name": "LogUpdateAuditAssignment",
      "type": "event"
    },
    {
      "anonymous": false,
      "inputs": [
        {
          "indexed": false,
          "internalType": "uint256",
          "name": "index",
          "type": "uint256"
        },
        {
          "indexed": true,
          "internalType": "uint256",
          "name": "auditId",
          "type": "uint256"
        },
        {
          "indexed": false,
          "internalType": "uint256",
          "name": "auditResultId",
          "type": "uint256"
        }
      ],
      "name": "LogUpdateAuditResult",
      "type": "event"
    },
    {
      "anonymous": false,
      "inputs": [
        {
          "indexed": false,
          "internalType": "uint256",
          "name": "index",
          "type": "uint256"
        },
        {
          "indexed": true,
          "internalType": "uint256",
          "name": "auditId",
          "type": "uint256"
        },
        {
          "indexed": false,
          "internalType": "uint256[]",
          "name": "auditFee",
          "type": "uint256[]"
        }
      ],
      "name": "LogUpdatePayments",
      "type": "event"
    },
    {
      "inputs": [],
      "name": "fetchAuditAssignments",
      "outputs": [
        {
          "components": [
            {
              "internalType": "uint256",
              "name": "index",
              "type": "uint256"
            },
            {
              "internalType": "uint256",
              "name": "auditId",
              "type": "uint256"
            },
            {
              "internalType": "address[]",
              "name": "auditors",
              "type": "address[]"
            },
            {
              "internalType": "uint256[]",
              "name": "auditResultIds",
              "type": "uint256[]"
            },
            {
              "internalType": "uint256[]",
              "name": "auditorFees",
              "type": "uint256[]"
            },
            {
              "internalType": "bool[]",
              "name": "auditorFeePaid",
              "type": "bool[]"
            },
            {
              "internalType": "bool[]",
              "name": "auditorResults",
              "type": "bool[]"
            }
          ],
          "internalType": "struct AuditAssignments.AuditAssignmentData[]",
          "name": "",
          "type": "tuple[]"
        }
      ],
      "stateMutability": "view",
      "type": "function"
    },
    {
      "inputs": [
        {
          "internalType": "uint256",
          "name": "auditId",
          "type": "uint256"
        }
      ],
      "name": "getAuditAssignment",
      "outputs": [
        {
          "components": [
            {
              "internalType": "uint256",
              "name": "index",
              "type": "uint256"
            },
            {
              "internalType": "uint256",
              "name": "auditId",
              "type": "uint256"
            },
            {
              "internalType": "address[]",
              "name": "auditors",
              "type": "address[]"
            },
            {
              "internalType": "uint256[]",
              "name": "auditResultIds",
              "type": "uint256[]"
            },
            {
              "internalType": "uint256[]",
              "name": "auditorFees",
              "type": "uint256[]"
            },
            {
              "internalType": "bool[]",
              "name": "auditorFeePaid",
              "type": "bool[]"
            },
            {
              "internalType": "bool[]",
              "name": "auditorResults",
              "type": "bool[]"
            }
          ],
          "internalType": "struct AuditAssignments.AuditAssignmentData",
          "name": "",
          "type": "tuple"
        }
      ],
      "stateMutability": "view",
      "type": "function"
    },
    {
      "inputs": [
        {
          "internalType": "uint256",
          "name": "index",
          "type": "uint256"
        }
      ],
      "name": "getAuditAssignmentAtIndex",
      "outputs": [
        {
          "internalType": "uint256",
          "name": "auditId",
          "type": "uint256"
        }
      ],
      "stateMutability": "view",
      "type": "function"
    },
    {
      "inputs": [],
      "name": "getAuditAssignmentCount",
      "outputs": [
        {
          "internalType": "uint256",
          "name": "count",
          "type": "uint256"
        }
      ],
      "stateMutability": "view",
      "type": "function"
    },
    {
      "inputs": [
        {
          "internalType": "uint256",
          "name": "auditId",
          "type": "uint256"
        },
        {
          "internalType": "address[]",
          "name": "_auditors",
          "type": "address[]"
        }
      ],
      "name": "insertAuditAssignment",
      "outputs": [],
      "stateMutability": "nonpayable",
      "type": "function"
    },
    {
      "inputs": [
        {
          "internalType": "uint256",
          "name": "auditId",
          "type": "uint256"
        }
      ],
      "name": "isAuditAssigned",
      "outputs": [
        {
          "internalType": "bool",
          "name": "",
          "type": "bool"
        }
      ],
      "stateMutability": "view",
      "type": "function"
    },
    {
      "inputs": [
        {
          "internalType": "uint256",
          "name": "auditId",
          "type": "uint256"
        },
        {
          "internalType": "address",
          "name": "auditor",
          "type": "address"
        }
      ],
      "name": "isAuditorAssigned",
      "outputs": [
        {
          "internalType": "bool",
          "name": "",
          "type": "bool"
        }
      ],
      "stateMutability": "view",
      "type": "function"
    },
    {
      "inputs": [
        {
          "internalType": "uint256",
          "name": "auditId",
          "type": "uint256"
        },
        {
          "internalType": "uint256",
          "name": "auditResultId",
          "type": "uint256"
        },
        {
          "internalType": "address",
          "name": "auditor",
          "type": "address"
        },
        {
          "internalType": "bool",
          "name": "auditorResult",
          "type": "bool"
        }
      ],
      "name": "updateAuditResult",
      "outputs": [
        {
          "internalType": "bool",
          "name": "success",
          "type": "bool"
        }
      ],
      "stateMutability": "nonpayable",
      "type": "function"
    },
    {
      "inputs": [
        {
          "internalType": "uint256",
          "name": "auditId",
          "type": "uint256"
        },
        {
          "internalType": "uint256[]",
          "name": "auditorFees",
          "type": "uint256[]"
        },
        {
          "internalType": "bool[]",
          "name": "auditorFeePaid",
          "type": "bool[]"
        }
      ],
      "name": "updatePayments",
      "outputs": [],
      "stateMutability": "nonpayable",
      "type": "function"
    }
  ],
  "bytecode": "0x608060405234801561001057600080fd5b50611588806100206000396000f3fe608060405234801561001057600080fd5b50600436106100935760003560e01c8063e92f74e411610066578063e92f74e4146100fa578063f25d7f781461010d578063f2a0847d14610122578063f8edc10f14610135578063fef4eddd1461015557600080fd5b80632379ad8c14610098578063465d063c146100af57806397145b5a146100d2578063b23b33e3146100e5575b600080fd5b6001545b6040519081526020015b60405180910390f35b6100c26100bd366004611239565b610168565b60405190151581526020016100a6565b61009c6100e036600461108b565b610376565b6100ed6103d0565b6040516100a691906113ba565b6100c261010836600461108b565b610713565b61012061011b366004611174565b61076a565b005b6101206101303660046110ce565b610826565b61014861014336600461108b565b610b2b565b6040516100a69190611452565b6100c26101633660046110a3565b610d9e565b600061017385610713565b6101985760405162461bcd60e51b815260040161018f9061141b565b60405180910390fd5b6000858152602081815260408083206002810180548351818602810186019094528084529194939091908301828280156101fb57602002820191906000526020600020905b81546001600160a01b031681526001909101906020018083116101dd575b5050505050905060005b815181101561036657856001600160a01b031682828151811061023857634e487b7160e01b600052603260045260246000fd5b60200260200101516001600160a01b0316141561035457866000808a8152602001908152602001600020600301828154811061028457634e487b7160e01b600052603260045260246000fd5b9060005260206000200181905550846000808a815260200190815260200160002060060182815481106102c757634e487b7160e01b600052603260045260246000fd5b90600052602060002090602091828204019190066101000a81548160ff021916908315150217905550877f48d95fc2b88a5596ba2b2214428158fec66691b2c4ac4aadfb5554e7470c6c716000808b81526020019081526020016000206000015489604051610340929190918252602082015260400190565b60405180910390a26001935050505061036e565b8061035e8161150b565b915050610205565b506000925050505b949350505050565b600061038181610713565b61039d5760405162461bcd60e51b815260040161018f9061141b565b600182815481106103be57634e487b7160e01b600052603260045260246000fd5b90600052602060002001549050919050565b606060006103dd60025490565b90506000808267ffffffffffffffff81111561040957634e487b7160e01b600052604160045260246000fd5b60405190808252806020026020018201604052801561047a57816020015b6104676040518060e00160405280600081526020016000815260200160608152602001606081526020016060815260200160608152602001606081525090565b8152602001906001900390816104275790505b50905060005b8381101561070b5760006104958260016114f3565b60008181526020818152604091829020825160e081018452815481526001820154818401526002820180548551818602810186018752818152969750929591948694908601939083018282801561051557602002820191906000526020600020905b81546001600160a01b031681526001909101906020018083116104f7575b505050505081526020016003820180548060200260200160405190810160405280929190818152602001828054801561056d57602002820191906000526020600020905b815481526020019060010190808311610559575b50505050508152602001600482018054806020026020016040519081016040528092919081815260200182805480156105c557602002820191906000526020600020905b8154815260200190600101908083116105b1575b505050505081526020016005820180548060200260200160405190810160405280929190818152602001828054801561063d57602002820191906000526020600020906000905b825461010083900a900460ff16151581526020600192830181810494850194909303909202910180841161060c5790505b50505050508152602001600682018054806020026020016040519081016040528092919081815260200182805480156106b557602002820191906000526020600020906000905b825461010083900a900460ff1615158152602060019283018181049485019490930390920291018084116106845790505b5050505050815250508486815181106106de57634e487b7160e01b600052603260045260246000fd5b60209081029190910101526106f46001866114f3565b9450505080806107039061150b565b915050610480565b509392505050565b60015460009061072557506000919050565b60008281526020819052604090205460018054849290811061075757634e487b7160e01b600052603260045260246000fd5b9060005260206000200154149050919050565b61077383610713565b61078f5760405162461bcd60e51b815260040161018f9061141b565b60008381526020818152604090912083516107b292600490920191850190610e94565b5060008381526020818152604090912082516107d692600590920191840190610edf565b50600083815260208190526040908190205490517f8ea16c06990444e80da7aae3f2b70b82ad9b9175eac4ee248ec1815eb1c0725b906108199086908690611485565b60405180910390a2505050565b61082f82610713565b1561088c5760405162461bcd60e51b815260206004820152602760248201527f417564697420496420616c7265616479206578697374732c206d75737420757060448201526619185d19481a5d60ca1b606482015260840161018f565b805160008167ffffffffffffffff8111156108b757634e487b7160e01b600052604160045260246000fd5b6040519080825280602002602001820160405280156108e0578160200160208202803683370190505b50905060008267ffffffffffffffff81111561090c57634e487b7160e01b600052604160045260246000fd5b604051908082528060200260200182016040528015610935578160200160208202803683370190505b50905060008367ffffffffffffffff81111561096157634e487b7160e01b600052604160045260246000fd5b60405190808252806020026020018201604052801561098a578160200160208202803683370190505b50905060008467ffffffffffffffff8111156109b657634e487b7160e01b600052604160045260246000fd5b6040519080825280602002602001820160405280156109df578160200160208202803683370190505b506000888152602081815260409091208851929350610a0692600290910191890190610f7f565b506000878152602081815260409091208551610a2a92600690920191870190610edf565b506000878152602081815260409091208451610a4e92600390920191860190610e94565b506000878152602081815260409091208351610a7292600490920191850190610e94565b506000878152602081815260409091208251610a9692600590920191840190610edf565b506000878152602081905260409081902060018082018a9055805480820182557fb10e2d527612073b26eecdfd717e6a320cf44b4afac2b0732d9fcbe2b7fa0cf6018a905560028054808455909101905554905188917f4f9675411eeb5421968dc1b23f97e9625825055ba5c9b10d7b21731b9f01a91391610b1a91908a9061146c565b60405180910390a250505050505050565b610b6b6040518060e00160405280600081526020016000815260200160608152602001606081526020016060815260200160608152602001606081525090565b610b7482610e2b565b60008281526020818152604091829020825160e0810184528154815260018201548184015260028201805485518186028101860187528181529295939493860193830182828015610bee57602002820191906000526020600020905b81546001600160a01b03168152600190910190602001808311610bd0575b5050505050815260200160038201805480602002602001604051908101604052809291908181526020018280548015610c4657602002820191906000526020600020905b815481526020019060010190808311610c32575b5050505050815260200160048201805480602002602001604051908101604052809291908181526020018280548015610c9e57602002820191906000526020600020905b815481526020019060010190808311610c8a575b5050505050815260200160058201805480602002602001604051908101604052809291908181526020018280548015610d1657602002820191906000526020600020906000905b825461010083900a900460ff161515815260206001928301818104948501949093039092029101808411610ce55790505b5050505050815260200160068201805480602002602001604051908101604052809291908181526020018280548015610d8e57602002820191906000526020600020906000905b825461010083900a900460ff161515815260206001928301818104948501949093039092029101808411610d5d5790505b5050505050815250509050919050565b600080610daa84610b2b565b604081015190915060005b8151811015610e1d57846001600160a01b0316828281518110610de857634e487b7160e01b600052603260045260246000fd5b60200260200101516001600160a01b03161415610e0b5760019350505050610e25565b80610e158161150b565b915050610db5565b506000925050505b92915050565b610e7081604051602401610e4191815260200190565b60408051601f198184030181529190526020810180516001600160e01b031663f5b1bba960e01b179052610e73565b50565b80516a636f6e736f6c652e6c6f67602083016000808483855afa5050505050565b828054828255906000526020600020908101928215610ecf579160200282015b82811115610ecf578251825591602001919060010190610eb4565b50610edb929150610fd4565b5090565b82805482825590600052602060002090601f01602090048101928215610ecf5791602002820160005b83821115610f4557835183826101000a81548160ff0219169083151502179055509260200192600101602081600001049283019260010302610f08565b8015610f725782816101000a81549060ff0219169055600101602081600001049283019260010302610f45565b5050610edb929150610fd4565b828054828255906000526020600020908101928215610ecf579160200282015b82811115610ecf57825182546001600160a01b0319166001600160a01b03909116178255602090920191600190910190610f9f565b5b80821115610edb5760008155600101610fd5565b80356001600160a01b038116811461100057600080fd5b919050565b600082601f830112611015578081fd5b8135602061102a611025836114cf565b61149e565b80838252828201915082860187848660051b8901011115611049578586fd5b855b8581101561106e5761105c8261107b565b8452928401929084019060010161104b565b5090979650505050505050565b8035801515811461100057600080fd5b60006020828403121561109c578081fd5b5035919050565b600080604083850312156110b5578081fd5b823591506110c560208401610fe9565b90509250929050565b600080604083850312156110e0578182fd5b8235915060208084013567ffffffffffffffff8111156110fe578283fd5b8401601f8101861361110e578283fd5b803561111c611025826114cf565b80828252848201915084840189868560051b870101111561113b578687fd5b8694505b838510156111645761115081610fe9565b83526001949094019391850191850161113f565b5080955050505050509250929050565b600080600060608486031215611188578081fd5b8335925060208085013567ffffffffffffffff808211156111a7578384fd5b818701915087601f8301126111ba578384fd5b81356111c8611025826114cf565b8082825285820191508585018b878560051b88010111156111e7578788fd5b8795505b838610156112095780358352600195909501949186019186016111eb565b50965050506040870135925080831115611221578384fd5b505061122f86828701611005565b9150509250925092565b6000806000806080858703121561124e578081fd5b843593506020850135925061126560408601610fe9565b91506112736060860161107b565b905092959194509250565b6000815180845260208085019450808401835b838110156112b65781516001600160a01b031687529582019590820190600101611291565b509495945050505050565b6000815180845260208085019450808401835b838110156112b65781511515875295820195908201906001016112d4565b6000815180845260208085019450808401835b838110156112b657815187529582019590820190600101611305565b80518252602081015160208301526000604082015160e0604085015261134a60e085018261127e565b90506060830151848203606086015261136382826112f2565b9150506080830151848203608086015261137d82826112f2565b91505060a083015184820360a086015261139782826112c1565b91505060c083015184820360c08601526113b182826112c1565b95945050505050565b6000602080830181845280855180835260408601915060408160051b8701019250838701855b8281101561140e57603f198886030184526113fc858351611321565b945092850192908501906001016113e0565b5092979650505050505050565b60208082526017908201527f417564697420496420646f6573206e6f74206578697374000000000000000000604082015260600190565b6020815260006114656020830184611321565b9392505050565b82815260406020820152600061036e604083018461127e565b82815260406020820152600061036e60408301846112f2565b604051601f8201601f1916810167ffffffffffffffff811182821017156114c7576114c761153c565b604052919050565b600067ffffffffffffffff8211156114e9576114e961153c565b5060051b60200190565b6000821982111561150657611506611526565b500190565b600060001982141561151f5761151f611526565b5060010190565b634e487b7160e01b600052601160045260246000fd5b634e487b7160e01b600052604160045260246000fdfea2646970667358221220c135cc1741d44a20c622234e8ba22c76c57296ea72a093adf901b88baaddc22a64736f6c63430008040033",
  "linkReferences": {},
  "deployedLinkReferences": {}
}