{
  "_format": "hh-sol-artifact-1",
  "contractName": "AuditEnrollments",
  "sourceName": "contracts/AuditorEnrollments.sol",
  "abi": [
    {
      "anonymous": false,
      "inputs": [
        {
          "indexed": false,
          "internalType": "uint256",
          "name": "index",
          "type": "uint256"
        },
        {
          "indexed": true,
          "internalType": "uint256",
          "name": "auditId",
          "type": "uint256"
        },
        {
          "indexed": false,
          "internalType": "address",
          "name": "auditor",
          "type": "address"
        }
      ],
      "name": "LogAddEnrolledAuditor",
      "type": "event"
    },
    {
      "anonymous": false,
      "inputs": [
        {
          "indexed": false,
          "internalType": "uint256",
          "name": "index",
          "type": "uint256"
        },
        {
          "indexed": true,
          "internalType": "uint256",
          "name": "auditId",
          "type": "uint256"
        },
        {
          "indexed": false,
          "internalType": "address[]",
          "name": "auditors",
          "type": "address[]"
        }
      ],
      "name": "LogNewAuditEnrollment",
      "type": "event"
    },
    {
      "anonymous": false,
      "inputs": [
        {
          "indexed": false,
          "internalType": "uint256",
          "name": "index",
          "type": "uint256"
        },
        {
          "indexed": true,
          "internalType": "uint256",
          "name": "auditId",
          "type": "uint256"
        },
        {
          "indexed": false,
          "internalType": "address[]",
          "name": "auditors",
          "type": "address[]"
        }
      ],
      "name": "LogUpdateAuditEnrollment",
      "type": "event"
    },
    {
      "inputs": [
        {
          "internalType": "uint256",
          "name": "auditId",
          "type": "uint256"
        },
        {
          "internalType": "address",
          "name": "auditor",
          "type": "address"
        }
      ],
      "name": "addAuditor",
      "outputs": [
        {
          "internalType": "bool",
          "name": "success",
          "type": "bool"
        }
      ],
      "stateMutability": "nonpayable",
      "type": "function"
    },
    {
      "inputs": [],
      "name": "fetchAuditEnrollments",
      "outputs": [
        {
          "components": [
            {
              "internalType": "address[]",
              "name": "auditors",
              "type": "address[]"
            },
            {
              "internalType": "uint256",
              "name": "auditId",
              "type": "uint256"
            },
            {
              "internalType": "uint256",
              "name": "index",
              "type": "uint256"
            }
          ],
          "internalType": "struct AuditEnrollments.AuditEnrollmentData[]",
          "name": "",
          "type": "tuple[]"
        }
      ],
      "stateMutability": "view",
      "type": "function"
    },
    {
      "inputs": [
        {
          "internalType": "uint256",
          "name": "auditId",
          "type": "uint256"
        }
      ],
      "name": "getAuditEnrollment",
      "outputs": [
        {
          "components": [
            {
              "internalType": "address[]",
              "name": "auditors",
              "type": "address[]"
            },
            {
              "internalType": "uint256",
              "name": "auditId",
              "type": "uint256"
            },
            {
              "internalType": "uint256",
              "name": "index",
              "type": "uint256"
            }
          ],
          "internalType": "struct AuditEnrollments.AuditEnrollmentData",
          "name": "",
          "type": "tuple"
        }
      ],
      "stateMutability": "view",
      "type": "function"
    },
    {
      "inputs": [
        {
          "internalType": "uint256",
          "name": "index",
          "type": "uint256"
        }
      ],
      "name": "getAuditEnrollmentAtIndex",
      "outputs": [
        {
          "internalType": "uint256",
          "name": "auditId",
          "type": "uint256"
        }
      ],
      "stateMutability": "view",
      "type": "function"
    },
    {
      "inputs": [],
      "name": "getAuditEnrollmentCount",
      "outputs": [
        {
          "internalType": "uint256",
          "name": "count",
          "type": "uint256"
        }
      ],
      "stateMutability": "view",
      "type": "function"
    },
    {
      "inputs": [
        {
          "internalType": "uint256",
          "name": "auditId",
          "type": "uint256"
        },
        {
          "internalType": "address[]",
          "name": "auditors",
          "type": "address[]"
        }
      ],
      "name": "insertAuditEnrollment",
      "outputs": [],
      "stateMutability": "nonpayable",
      "type": "function"
    },
    {
      "inputs": [
        {
          "internalType": "uint256",
          "name": "auditId",
          "type": "uint256"
        }
      ],
      "name": "isAuditEnrolled",
      "outputs": [
        {
          "internalType": "bool",
          "name": "",
          "type": "bool"
        }
      ],
      "stateMutability": "view",
      "type": "function"
    },
    {
      "inputs": [
        {
          "internalType": "uint256",
          "name": "auditId",
          "type": "uint256"
        },
        {
          "internalType": "address[]",
          "name": "auditors",
          "type": "address[]"
        }
      ],
      "name": "updateauditors",
      "outputs": [
        {
          "internalType": "bool",
          "name": "success",
          "type": "bool"
        }
      ],
      "stateMutability": "nonpayable",
      "type": "function"
    }
  ],
  "bytecode": "0x608060405234801561001057600080fd5b50610aa6806100206000396000f3fe608060405234801561001057600080fd5b50600436106100885760003560e01c806386ed41061161005b57806386ed410614610100578063942915dd14610113578063afa6255e1461011b578063b9e309c11461012e57610088565b80630e601b4f1461008d57806326673493146100a25780633351f910146100c85780635572293d146100eb575b600080fd5b6100a061009b36600461082a565b61014e565b005b6100b56100b03660046107e7565b61026a565b6040519081526020015b60405180910390f35b6100db6100d63660046107e7565b6102a0565b60405190151581526020016100bf565b6100f36102fa565b6040516100bf9190610975565b6100db61010e36600461082a565b610483565b6001546100b5565b6100db6101293660046107ff565b61054a565b61014161013c3660046107e7565b610657565b6040516100bf91906109d6565b610157826102a0565b156101b95760405162461bcd60e51b815260206004820152602760248201527f417564697420496420616c7265616479206578697374732c206d75737420757060448201526619185d19481a5d60ca1b60648201526084015b60405180910390fd5b60008281526020818152604090912082516101d692840190610756565b50600082815260208190526040908190206001808201859055805480820182557fb10e2d527612073b26eecdfd717e6a320cf44b4afac2b0732d9fcbe2b7fa0cf6018590556002805492810183815592909101905554905183917f69f7697be43cf014b04ce2617aad02b01eb89b7d2c1d7344161ec7a30f50f2399161025e919085906109f0565b60405180910390a25050565b60006001828154811061028d57634e487b7160e01b600052603260045260246000fd5b906000526020600020015490505b919050565b6001546000906102b25750600061029b565b6000828152602081905260409020600201546001805484929081106102e757634e487b7160e01b600052603260045260246000fd5b9060005260206000200154149050919050565b6060600061030760025490565b90506000808267ffffffffffffffff81111561033357634e487b7160e01b600052604160045260246000fd5b60405190808252806020026020018201604052801561038857816020015b61037560405180606001604052806060815260200160008152602001600081525090565b8152602001906001900390816103515790505b50905060005b8381101561047b5760006103a3826001610a11565b600081815260208181526040918290208251815460809381028201840190945260608101848152949550909390928492849291849184018282801561041157602002820191906000526020600020905b81546001600160a01b031681526001909101906020018083116103f3575b505050505081526020016001820154815260200160028201548152505084868151811061044e57634e487b7160e01b600052603260045260246000fd5b6020908102919091010152610464600186610a11565b94505050808061047390610a29565b91505061038e565b509250505090565b600061048e836102a0565b6104d45760405162461bcd60e51b8152602060048201526017602482015276105d591a5d08125908191bd95cc81b9bdd08195e1a5cdd604a1b60448201526064016101b0565b60008381526020818152604090912083516104f192850190610756565b50600080848152602001908152602001600020600201547f56d0a276ae3077b871c06c0bab85fec87f3344f3e6dcab8d9edfe377d71b046b84846040516105399291906109f0565b60405180910390a250600192915050565b6000610555836102a0565b15610594576000838152602081815260408220805460018101825590835291200180546001600160a01b0319166001600160a01b038416179055610604565b6040805160018082528183019092526000916020808301908036833701905050905082816000815181106105d857634e487b7160e01b600052603260045260246000fd5b60200260200101906001600160a01b031690816001600160a01b031681525050610602848261014e565b505b600083815260208181526040918290206002015482518681526001600160a01b03861692810192909252917f5d4ce133de30c9f772ca1690f823adee215cd140a05d4ce255e1533c6d9fab079101610539565b61067b60405180606001604052806060815260200160008152602001600081525090565b610684826102a0565b6106ca5760405162461bcd60e51b8152602060048201526017602482015276105d591a5d08125908191bd95cc81b9bdd08195e1a5cdd604a1b60448201526064016101b0565b600082815260208181526040918290208251815460809381028201840190945260608101848152909391928492849184018282801561073257602002820191906000526020600020905b81546001600160a01b03168152600190910190602001808311610714575b50505050508152602001600182015481526020016002820154815250509050919050565b8280548282559060005260206000209081019282156107ab579160200282015b828111156107ab57825182546001600160a01b0319166001600160a01b03909116178255602090920191600190910190610776565b506107b79291506107bb565b5090565b5b808211156107b757600081556001016107bc565b80356001600160a01b038116811461029b57600080fd5b6000602082840312156107f8578081fd5b5035919050565b60008060408385031215610811578081fd5b82359150610821602084016107d0565b90509250929050565b6000806040838503121561083c578182fd5b8235915060208084013567ffffffffffffffff8082111561085b578384fd5b818601915086601f83011261086e578384fd5b81358181111561088057610880610a5a565b8060051b604051601f19603f830116810181811085821117156108a5576108a5610a5a565b604052828152858101935084860182860187018b10156108c3578788fd5b8795505b838610156108ec576108d8816107d0565b8552600195909501949386019386016108c7565b508096505050505050509250929050565b6000815180845260208085019450808401835b838110156109355781516001600160a01b031687529582019590820190600101610910565b509495945050505050565b600081516060845261095560608501826108fd565b905060208301516020850152604083015160408501528091505092915050565b6000602080830181845280855180835260408601915060408160051b8701019250838701855b828110156109c957603f198886030184526109b7858351610940565b9450928501929085019060010161099b565b5092979650505050505050565b6000602082526109e96020830184610940565b9392505050565b600083825260406020830152610a0960408301846108fd565b949350505050565b60008219821115610a2457610a24610a44565b500190565b6000600019821415610a3d57610a3d610a44565b5060010190565b634e487b7160e01b600052601160045260246000fd5b634e487b7160e01b600052604160045260246000fdfea26469706673582212209915fee8256101e304ddfdb73bda465f2b3f53010d298cd32b62b6b1f3ba27a064736f6c63430008030033",
  "linkReferences": {},
  "deployedLinkReferences": {}
}